:10005E000000000000000000000000000000000092
:10006E000000000000000000000000000000000082
:10007E000000000000000000000000000000000072
:10008E000000000000000000000000000000000062
:10009E000000000000300000000000000000000022
:1000AE00000000C0000000000000000007000C0768
:1000BE00000000000000003C000000007800001866
:1000CE000600000007F000038070000000000380AF
:1000DE000703800000007F80003C000000003C0011
:1000EE00001E0FC00007FFF80003C07800000000DC
:1000FE0003C007038000001FC7C0001C00000000E3
:10010E001800001C03E00003C0F00003C0780003D9
:10011E00803C0380070380001FF1C780001C000095
:10012E000F000000003C01E0000380E00001807041
:10013E000001EFFE0381C7038E000E318700001C05
:10014E000000078001E000380040000380E000015D
:10015E0080780000E60E0380E703FF00063187007B
:10016E00001C0E0003801FF000380000000180C04C
:10017E00000180EC0000660E0380777F800007315F
:10018E008E00001DFF000103FF000070001FC00164
:10019E0081C0000180E6000007CCC38027338000B9
:1001AE00031FFC0031FF0FC0001FE000007007FFAF
:1001BE00E001BFE0000181C7000006ECF3800703F9
:1001CE00800003F80C003F9C0F800000F00000E759
:1001DE00FFC00001F80000018183C00006EC7380AF
:1001EE000F03BC00030E0000381C0F000000E600D9
:1001FE0000E3F000000180000001F381E01C06EC3A
:10020E0061807F1FFE00000E0C001C180F00F00115
:10021E00C78001E0000000000007F00FF700F80EA5
:10022E0006EE6187E73E0000000FFF001C1FCE00A8
:10023E00780183C003F001F8000007FFF8FFC60E37
:10024E007C0F06EE618787E0000007FF80001CFF31
:10025E00CE0038030FC003703FE0001FFFE0000721
:10026E008CFF3F8666EE6180077000001F980000CD
:10027E001FFC0E00180FF9C00770060007FFF800EC
:10028E00000799F00FC04EEE618000307C00003800
:10029E00E0000C181C00011FC0C00E70000001E031
:1002AE0038000007B0000000CEEE6180001FFC0099
:1002BE00033FF8000C181C00031E00000C700070A9
:1002CE0000007000000FE001C000CECE61807FFC08
:1002DE00000001E078000E181800031807001870CF
:1002EE0007F80000E1E0001FE001E0018ECC618123
:1002FE00FFC0300001C078000E1FF8000600870016
:10030E0030703FE00001FFF0001FF071E0038ECC73
:10031E00638003C0780001FF78000FFC3000061CDC
:10032E00E700007000000003F0F8003BA439C003A2
:10033E000DCC638007F0F00001C0700006180000BD
:10034E000E1EE70000700000000380700073873BF4
:10035E00800701F003800F19C00001C6700000185D
:10036E0000000E1CE700007001FE0000007000632C
:10037E00873B800F01BC03801F0F000001FF700040
:10038E00001800101C1CE70000707FFE000000F03B
:10039E0000C3839B001E039E03803F07800000C0A6
:1003AE007000001800101C1CE7010070701E000089
:1003BE0000E001838383000E070E0380F303C00069
:1003CE0000C27000001C00183C1CE7010070301CBD
:1003DE00000000E001030006000E0E0F0381E30093
:1003EE00F00000FF7000001C00387818E703007062
:1003FE00301C000000E00007000600001C063387DA
:10040E00830C7C0000C07000001E00787838E70373
:10041E0000703038000000E00007000FFC003000D4
:10042E001F9C03183FC000C070E0000FC3FC387063
:10043E00E3CF80E039FC000001E000073FFFFE0043
:10044E0060000F9003701FF000C7FFF80007FFF069
:10045E0018E0E3FF80E03FFC000061C000073FE0D2
:10046E0000000000078007E00003FFFFF87C00009B
:10047E00FF80018040FE0060100000003FC00007BA
:10048E00000000000000070007800001FF80000050
:10049E0000000000000000000060000000000F805F
:1004AE000003000000000000020007000000000032
:1004BE00000000000000000000000000000000002E
:1004CE000700000000000000000000000700000010
:1004DE00000000000000000000000000000000000E
:1004EE0000000600000000000000000000000000F8
:1004FE0000000000000000000000000000000000EE
:10050E0000000000000000000000000000000000DD
:10051E0000000000000000000000000000000000CD
:10052E0000000000000000000000000000000000BD
:10053E0000000000000000000000000000000000AD
:10054E00000000000000000000000000000000009D
:10055E0000000000001C0000E00000000000000091
:10056E0000000000000000000000000380000003F7
:10057E00C000003E0001F00000000000000000007E
:10058E000000000F000000000001E00038FFF00046
:10059E00007C0000780000000000000000F0000069
:1005AE000007800000000001E0001F81F00000F055
:1005BE0001C03C00000006000000C07C00000007E7
:1005CE00000001C01E01C0001E01E00001E003C0DA
:1005DE001E0000007F800003F03C000000070000BA
:1005EE0000F7FF01C0000EFBC00001E007C00E00C7
:1005FE00000FFE0000FFF01C0000780700000073E3
:10060E000701C0000FC3C00003C00FC00F0000FFE2
:10061E00C0000001E00000003C07000000330701AD
:10062E00C0000E03800007801FC0078000038000FB
:10063E000001C00000003C073E0000036761C000DF
:10064E00061F800007803FC003800003C00000012A
:10065E00C00078000007FF8000037779C00007FB19
:10066E00000007007FC003C00003C0000001801F10
:10067E00FC0003FF0F8000037739C0000300000069
:10068E000F0073C003C00003C00000039FFFC00033
:10069E0003E71C000E037739C00000007FC00E0078
:1006AE0063C001C00003C00000078FF0000001C747
:1006BE00180007837739C00007FFFFE00E0003C064
:1006CE0001C00003C00000FF80F0000001C7000061
:1006DE0007837739C03FFFE000000E0003C001C062
:1006EE000783CF80006000E6000781C7000003B7D4
:1006FE007739C01FC00380000E0003C001C003C3C2
:10070E00FF80006000E70003C1C7000000377739A3
:10071E00C000003FE0000E0003C001C003C3FC0098
:10072E0000E001C78003C1C7F00000677739C00041
:10073E007FE1F0000E0003C001C003C3C00000EC57
:10074E00038F0001C1DFF80000E77739C00038F1F0
:10075E00F0000E0003C001C001C3800000FF871E21
:10076E00000001FCF00000C76731C00038FDE0005A
:10077E000E0003C001C001C3800001FF8F3C0000CA
:10078E0001C0F00001C7E631C0001FF9C0000F0024
:10079E0003C003C001C3800003C71FF8000031B8B7
:1007AE00E0000186E631C0001C71C0000F0003C0DE
:1007BE0003C001C3800001870E700000619CE00041
:1007CE000380F801C0001C7F8000070003C0038077
:1007DE0001C38000000700E00000638EE000078187
:1007EE00DE01C0000FFF0000078003C0078001C3B9
:1007FE008000000701C70000E387E0000F01CF0172
:10080E00C0000C60000003C003C0070001C381FCE0
:10081E0000070383C001C303C00007038F01C0009C
:10082E000060000003C003C00F0001C3FFFE0007FD
:10083E000707E001C703E00007070781C00000FFBC
:10084E00C00001E003C01E0003FFFFFE000E3FFDCF
:10085E00E007C707F800000E0399C0001FFC000058
:10086E0000F003C03C03FFF00000000E3FC1E007A4
:10087E008E0F7C000018000FC00000600000007892
:10088E0003C07800F800000000DE3E00E0038C1E7E
:10089E003F8000300007C00000600000003E0000F6
:1008AE00F00000000000007C3000600198F80FF0AE
:1008BE0000000003C000007FFE00001C0000E000EE
:1008CE0000000000003C0000000033C007F80000EC
:1008DE00000380003FFFFF0000000000000000004A
:1008EE0000000038000000000000000000000000C2
:1008FE000003FF00000000000000000000000000E8
:10090E0000000000000000000000000000000000D9
:10091E0000000000000000000000000000000000C9
:10092E0000000000000000000000000000000000B9
:10093E0000000000000000000000000000000000A9
:10094E000000000000000000000000000000000099
:10095E000000000000000000000000000000000089
:10096E000000000000000000000000000000000079
:10097E00000000000000000000001C00000000004D
:10098E0000000000000000000000000000700000E9
:10099E00E0000000000000000F000000000000005A
:1009AE000000000700000007800000F00001F000CA
:1009BE0006000000000007000000001E00000000FE
:1009CE000003C00071FFE00001F000007800078016
:1009DE000C00000007000000000F000000000003E4
:1009EE00C0003F03E00003C01FC03C0007C01E0054
:1009FE00000003FC0000000E000003803C0380009A
:100A0E003C03C00007807FF01E0007801F0000011E
:100A1E00FFE00000000E000001EFFE0380001DF756
:100A2E0080000780FFF80E000F003F800003F1C02A
:100A3E000000F00E000000E60E0380001F8780000D
:100A4E000F00F8F80F000E00FC000000E1C00000DF
:100A5E00780E000000660E0380001C0700001E01C9
:100A6E00E07C07801E03E0000000E1C00000780E6D
:100A7E007C000006CEC380000C3F00001E01E03C4F
:100A8E0003801C07E00000006383F000000FFF00EE
:100A9E000006EEF380000FF600001C03C03C03C0FE
:100AAE003C1CF000000003FFF80007FE1F000006CC
:100ABE00EE738000060000003C00003C03C03800CE
:100ACE00F0000000FFE0000007CE38001C06EE73B9
:100ADE0080000000FF803800003C01C07800F0006C
:100AEE0000FFE0000000038E30000F06EE73800062
:100AFE000FFFFFC03800007801C07C00F00001F845
:100B0E0000F00000038E00000F06EE73807FFFC022
:100B1E0000003800007801C0EE00700000001FFCDD
:100B2E00000F038E0000076EEE73803F80070000FB
:100B3E00380000F801C1CC007038000FF03C0007FF
:100B4E00838E0000006EEE738000007FC0003800C0
:100B5E0000F001C38C007FFE000700380007838F72
:100B6E00E00000CEEE738000FFC3E000380001E02D
:100B7E0001C30C03FFFE00038F78000383BFF00058
:100B8E0001CEEE73800071E3E000380003E001C691
:100B9E000FFFF0000003FE70000003F9E000018E6D
:100BAE00CE63800071FBC000380007C001C00DFC91
:100BBE0070000003807000000381E000038FCC639F
:100BCE0080003FF380003C00078003C00C006000F3
:100BDE00000380E000006371C000030DCC63800051
:100BEE0038E380003C000F0003C00C0060000001E1
:100BFE00BFEC0000C339C0000701F003800038FFCE
:100C0E0000001C001E0003800C0060000001E0C705
:100C1E00C000C71DC0000F03BC0380001FFE0000F4
:100C2E001E003E0007800C00600000019C01E001E8
:100C3E00C70FC0001E039E03800018C000000F00E7
:100C4E007C0007001C006000001B0F00F0038607ED
:100C5E0080000E071E03800000C000000F00F80089
:100C6E000F001C006000001D870000038E07C000EF
:100C7E000E0E0F03800001FF80000781F0001E00A2
:100C8E001C007FE0003D8318000F8E0FF000001C4B
:100C9E00073380003FF8000003C1FFFC3C001C0F2F
:100CAE00FFF00039C00C000F1C1EF8000030001FB2
:100CBE00800000C0000001E1FFFC78001CFF8000F6
:100CCE000038F00E0007183C7F000060000F800017
:100CDE0000C0000000F00000F0001C000000003812
:100CEE007C0F800331F01FE000000007800000FF42
:100CFE00FC0000700000E0001C00000000003FFF40
:100D0E00800067800FF00000000700007FFFFE00EC
:100D1E000000000000000C000000000007FE0000B4
:100D2E0000000000000000000007FE0000000000B0
:100D3E0000000000000000000000000000000000A5
:100D4E000000000000000000000000000000000095
:100D5E000000000000000000000000000000000085
:100D6E000000000000000000000000000000000075
:100D7E000000000000000000000000000000000065
:100D8E000000000000000000000000000000000055
:100D9E000000000000000000000000000000000045
:100DAE000000000000000000000000000000000035
:100DBE000000000000000000000000000000000025
:100DCE0000000000000038000000000000000000DD
:100DDE0000000006000006000000000000000000F9
:100DEE00000000003C000060000000000000000059
:100DFE0000078000078000000000000000C07000A7
:100E0E0000001C00007800000003000E000000032C
:100E1E00C000038003800000070000F07800078008
:100E2E001C00003807800003800F000000038000C4
:100E3E0003801FE00000078000F0700003E01DE05B
:100E4E00003807C00003C00F0000000380000381BC
:100E5E00FBC00000038000F0700001F01FC00038DE
:100E6E0003C0000380070001F073800003878380B6
:100E7E000000038001E071E000F3FC00003801C0C7
:100E8E00000380060000F87B8000038007800000CE
:100E9E00038001C073E00001FC0000380000000771
:100EAE000007F800787B800003870F000000030026
:100EBE00039C7F8000001FC00038001F0007383FD2
:100ECE00F8003073FC000383DE00003F0700030EC2
:100EDE007C0000007F800038E0FF8007F83E700045
:100EEE00006FF80003F0FC0001FE0700060F7018FB
:100EFE000001FC00003FEF8F800FC3867F0000FFD4
:100F0E00800007E078001FF0077E0E1F7018038028
:100F1E001C7F00FCF80C000C1F87FC0000C3800037
:100F2E003F807E0000E007FF1FF7701807E01FFFED
:100F3E0087F8E018001C03FF700001838600FF8015
:100F4E00EF0000F3FF0F3F8770381FC3FE0007B995
:100F5E00C7000038637660000003FF800383C7C0BC
:100F6E0000E0EE0E1E003FF8FBDF8000003FC78062
:100F7E000033E707F000F83FF00003E77BF000E0F6
:100F8E000E0E00381FF003800380003C0700007F28
:100F9E00867F8003F7F9C00003DC39FE00E00E0EF9
:100FAE000FFC07800381FFE0003807600063863680
:100FBE000007E19DC0000380387F00E01C1E061C68
:100FCE0070000381C1E00078067FF0C30E07F000C9
:100FDE00E01CC0000F803F8000E71C1C061C78C080
:100FEE000381C1C000F81FFFE183FC7FC000E03C1D
:100FFE00C0001F80FF0000FC3C1C061C70E003813B
:10100E00CDC001FFFC70030FCFBE0000E039C00061
:10101E003B83F80000F8381C07FC71E00381FDC02B
:10102E0003BF0C70007F03867000E071C0C0F380B8
:10103E00380003E0781C061C77C0038DC1C00F3842
:10104E001CE00003038FF8006071C0C3E38039F029
:10105E001F80701C061C7F000399C1C03E381CE027
:10106E00000303FE000070E1C0C1C380FFFC7F00DF
:10107E00E038061C7C0003F1FFC03C380FC00003B3
:10108E001B06000071C1C1C003FFF8003C01E0382F
:10109E000FFC700007E1F9C01C3803E000030F06D7
:1010AE0000007300FFC0038C38000001C0380FDC55
:1010BE00700307C1C1C0003803F80007678600003F
:1010CE00F0007FC00380380000038C780E1C700384
:1010DE000781C1C001B8073E0007CFE6001FFF80A1
:1010EE0000001F803800000706700E1C70070701F5
:1010FE00C1C001F81E1F00078C7E000F03FC00000C
:10110E000F803800000E07F01C1C7007070381C00B
:10111E0000F0380F000F183F0000007FFFF80700A7
:10112E003800003C03E01C7C3C0F00038FC00070B5
:10113E00E007000F300FFC00000FFFE00700380043
:10114E00007003C01C3C1FFF000387C000738003A8
:10115E0000000003FF800001FF800000380000C087
:10116E000380183C0FFC000003C0000000000000CC
:10117E000000FC0000001C00000018000000000031
:10118E0000180000000001800000000000000000B8
:10119E000000000000000000180000000000000029
:1011AE000000000000000000000000000000000031
:1011BE000000000000000000000000000000000021
:1011CE00000000001C0000000000000000000000F5
:1011DE0000000001800000C0003038000000000058
:1011EE000000000000000003800000C000C0E0000E
:1011FE000000000000000000000000C000000DE034
:10120E00000000000000000000000000000380004D
:10121E0001C000383800000000000000000000008F
:10122E000003000000E000E0E0000000000000000D
:10123E000000000000E03F803F8000000000000042
:10124E000000000000000703F80381FC007838005E
:10125E000000000000000000000000070001E0E0B8
:10126E0001E0E0000000000000000000000000C7E8
:10127E00E000F8300000000000000000078380004E
:10128E000703700381B80070338000000000000077
:10129E000000000000073F80E0E001C0CE0000002B
:1012AE00000000000000000000F8E0003F3C0000DD
:1012BE00000000000000078380000306E001837039
:1012CE0000603FC000000000000000000038003F3A
:1012DE00F00060C00180FF00000000000000000070
:1012EE0001C00EE0C00E37700000000000000000CC
:1012FE0007838000030EC001876000E7F80000003E
:10130E00000000000000007807EE000001C0039FFF
:10131E00E000000000000000000003C00EC0DC076B
:10132E0066C0000000000000000007838000030379
:10133E00C00181E000C0700000000000000000004D
:10134E000078000C00007D800301C000000000004A
:10135E000000000003C006FFFE00FCC000000000FD
:10136E00000000000783800003C3F001E1F801C014
:10137E0066000000000000000000007C001C00075A
:10138E00F18F07019800000000000000000003E04C
:10139E0007EF0E039E780000000000000000078398
:1013AE00800003763C01BB1E01C07F800000000060
:1013BE000000000000FC0019F81C037C0701FE0071
:1013CE00000000000000000007E07DC366073BB888
:1013DE000000000000000000078380003B6FDF9DCF
:1013EE00B7EFC3E3C700000000000000000000FCE0
:1013FE00003F380673E00F8F1C0000000000000055
:10140E00000007E001F3761E7F98780000000000D0
:10141E000000078387FE3B79F7DDBCFBE7E1870120
:10142E00E00000000000000000FE007838073E706B
:10143E001F861C07800000000000000007F00CFB58
:10144E00660CFD807C0000000000000007FF800E8F
:10145E0033FFC019FFE006C1FF01F00000000000DD
:10146E00000001EE00F8380718701B07FC07C000DB
:10147E000000000000000F700DF36600CE00780033
:10148E0000000000000007FF801C37E1801BF0C049
:10149E000CC18701E00000000000000001CE01DF5A
:1014AE00F80E637033061C07800000000000000079
:1014BE000E701DF766000C1F0000000000000000FB
:1014CE00078380383C07F81E03FC18C1BF000000DC
:1014DE0000000000000001CE0198381C7360230646
:1014EE00FC0000000000000000000E7019E766000E
:1014FE00FFFF000000000000000007838078380D19
:10150E00801C06C000C1F7000000000000000000B3
:10151E0001CF0318383361E00307DC000000000040
:10152E00000000000E7800C6E63FCC000000000070
:10153E0000000000078380F00001FF0000FF80C163
:10154E008700000000000000000003FF0E19F801E4
:10155E00E1E003061C0000000000000000001FF880
:10156E0001C0F6000C000000000000000000078320
:10157E0081E000FF80007FC000C1BF0000000000BE
:10158E000000000003FF181FB801C0E00306FC00B6
:10159E0000000000000000001FF80381DC000C00BA
:1015AE003000000000000000078383C000018000AF
:1015BE0000C000C1E700C00000000000000003876B
:1015CE0080183801E1F003079C03000000000000C2
:1015DE0000001C3C07038E000C0078000000000089
:1015EE000000078383800001800000C000C18701D6
:1015FE00E00000000000000007878038380373F811
:10160E0003061C0780000000000000003C3C0C0795
:10161E000F000C007C000000000000000783870014
:10162E000001800000C000C1BFF9F0000000000002
:10163E000000078380383806063C0306FFE7C0002B
:10164E000000000000003C1C380E07000C00780063
:10165E0000000000000007838FFF0001800000C023
:10166E0000FFF001E00000000000000007038030E2
:10167E00F80C0C1F03FFC0078000000000000000E4
:10168E00381C003803000C000000000000000000B1
:10169E00000000000001800000C000CC000000002F
:1016AE000000000000000703C0307838000FC33080
:1016BE0000000000000000000000381E00000000C6
:1016CE000C000000000000000000000000000001FF
:1016DE00800000C000C000000000000000000000FC
:1016EE0000000000300000000300000000000000B9
:1016FE00000000000000000000000C0000000000D0
:10170E0000000000000000000000000000000000CB
:10171E00000000000000000000000000000030008B
:10172E0000000000000000000000000000000000AB
:10173E000007000000000000000000000000000094
:10174E000000000000000000000000000380000008
:10175E003038000000000000000000000000000013
:10176E000380000600000000000E000000000000D4
:10177E00000000000000000000000001C00F003853
:10178E00380000000000000000000000000001E32F
:10179E00800007800060000006F0000000000000DE
:1017AE000000000000000000000001C07E0078383C
:1017BE000000000000000000000000000000C30058
:1017CE0000038000701FC01FC0000000000000005A
:1017DE000000003C1C0000000001C0C000703380FF
:1017EE0000000000000000000000000000DFE00725
:1017FE0003000063F0007C180000000000000000F1
:10180E0000003C1C0000000001C00000603FC00052
:10181E00000000000000000000070007F30007832F
:10182E0000007C70001F9E00000000000000000001
:10183E00003C1C0000000001C01E00E7F800000084
:10184E0000000000000000000F0000C30003837CB6
:10185E00077060071BB800000000000000000000C9
:10186E003C1C0000000001FFF700C07000000000EB
:10187E00000000000000000F0000FF000007DE0760
:10188E00606E03B360000000000000000000003C2A
:10189E001C000000000F9D8601C0660000000000C5
:1018AE000000000000000F8000C300007F38037F9F
:1018BE00FF007E60000000000000000000003C1CE5
:1018CE00000000000D998E01C07F80000000000016
:1018DE0000000000001F8000DB0020730003F7876C
:1018EE0001CF3C000000000000000000003C1C0086
:1018FE000000001D99FC03E3C7000000000000007B
:10190E00000000001F8000FB001873003EE1B303CF
:10191E009DDC000000000000000000003C1C3FF0B9
:10192E0000001D98C027E18701E0000000000000C4
:10193E000000001FC000C3001C730000F9BB0F3F66
:10194E00CC3C0000000000000000003FFC007000D6
:10195E00001DB80786C1FF01F00000000000000066
:10196E0000003DC000CFF81C73E0067DB3067EC0BC
:10197E003E0000000000000000003FFC00E0000000
:10198E001DB87DCCC18701E0000000000000000002
:10199E000039C01FFB00007EE006F9B30067003C73
:1019AE000000000000000000003C1C01C000001DF3
:1019BE008FF1D8C1BF000000000000000000000041
:1019CE0039C00DC1800370E00EFBB300060F80001E
:1019DE0000000000000000003C1C03C000001D873A
:1019EE0031C0C1F700000000000000000000003907
:1019FE00E001DDC0067CE00CF3B3007FFF80000049
:101A0E00000000000000003C1C078000000187FD64
:101A1E00C0C18700000000000000000000007FE051
:101A2E00039CE00666C00063731FE6000000000022
:101A3E000000000000003C1C0F0000000187F1C0F8
:101A4E00C1BF00000000000000000000007FE007A2
:101A5E001B780C63C000E07B000600000000000055
:101A6E0000000000003C1C1E000000018731C0C1B8
:101A7E00E700C000000000000000000070F00FFF43
:101A8E003E2CE1C001C0EE00060018000000000070
:101A9E00000000003C1C1C00000001873FC0C187F5
:101AAE0001E0000000000000000000F0F01C181F14
:101ABE009CC3F00381C70006003C0000000000003C
:101ACE000000003C1C380000000183FB80C1BFF900
:101ADE00F0000000000000000000F0703018001D43
:101AEE00C77C0603878006003E0000000000000051
:101AFE0000003C1C7FF8000001830380FFF001E032
:101B0E00000000000000000000E0702018E0019CC2
:101B1E001F9C07038006003C000000000000000030
:101B2E000000000000000001800180CC00000000D9
:101B3E000000000000000000E07801FFF803300F05
:101B4E00801C018006000000000000000000000064
:101B5E0000000000000000000000C00000000000B7
:101B6E000000000000000000000007000000000060
:101B7E000000000600000000000000000000000051
:101B8E000000000000000000000000000000000047
:101B9E0000000000000000000003800000000000B4
:101BAE000000000000000000000000000000000027
:101BBE00000000000380000030380000000000002C
:101BCE000000000000000018038000060000000066
:101BDE00000E0000000000000000000000000000E9
:101BEE0000000001C00F00383800000000000000A7
:101BFE000000000000001EC3980007800060000077
:101C0E0006F00000000000000000000000000000D0
:101C1E00000001C07E0078380000000000000000C7
:101C2E0000000000000EE33C00038000701FC01F88
:101C3E00C0000000000000000000003C1C0000007E
:101C4E000001C0C0007033800000000000000000E2
:101C5E000000000000E3F00703000063F0007C18B2
:101C6E00000000000000000000003C1C000000000E
:101C7E0001C00000603FC000000000000000000036
:101C8E00000700007F80078300007C70001F9E000D
:101C9E000000000000000000003C1C0000000001DD
:101CAE00C01E00E7F8000000000000000000000069
:101CBE000F0000630003837C077060071BB80000F1
:101CCE0000000000000000003C1C0000000001FFAE
:101CDE00F700C07000000000000000000000000FC0
:101CEE000000638C0007DE07606E03B36000000027
:101CFE00000000000000003C1C000000000F9D864C
:101D0E0001C06600000000000000000000000F800F
:101D1E003C7B8E007F38037FFF007E60000000005A
:101D2E000000000000003C1C000000000D998E0118
:101D3E00C07F80000000000000000000001F80FC3B
:101D4E00F1FE00730003F78701CF3C000000000096
:101D5E0000000000003C1C000000001D99FC03E385
:101D6E00C700000000000000000000001F809CEE75
:101D7E00FC3873003EE1B3039DDC00000000000060
:101D8E00000000003C1C3FF000001D98C027E187BA
:101D9E0001E00000000000000000001FC0180E004F
:101DAE001C730000F9BB0F3FCC3C0000000000008C
:101DBE000000003FFC007000001DB80786C1FF0147
:101DCE00F00000000000000000003DC0180C001CD8
:101DDE0073E0067DB3067EC03E00000000000000EA
:101DEE0000003FFC00E000001DB87DCCC18701E083
:101DFE0000000000000000000039C0181BF0007E3B
:101E0E00E006F9B30067003C00000000000000008F
:101E1E00003C1C01C000001D8FF1D8C1BF000000A6
:101E2E00000000000000000039C0187E700370E052
:101E3E000EFBB300060F8000000000000000000043
:101E4E003C1C03C000001D8731C0C1F7000000001C
:101E5E000000000000000039E019B070067CE00CB4
:101E6E00F3B3007FFF800000000000000000003C84
:101E7E001C078000000187FDC0C187000000000024
:101E8E000000000000007FE01F37700666C0006390
:101E9E00731FE600000000000000000000003C1C64
:101EAE000F0000000187F1C0C1BF0000000000005C
:101EBE0000000000007FE03C3E700C63C000E07B41
:101ECE00000600000000000000000000003C1C1E88
:101EDE00000000018731C0C1E700C0000000000013
:101EEE000000000070F03C30700CE1C001C0EE004C
:101EFE000600180000000000000000003C1C1C0042
:101F0E00000001873FC0C18701E000000000000013
:101F1E00000000F0F03830703CC3F00381C70006BB
:101F2E00003C0000000000000000003C1C380000D7
:101F3E00000183FB80C1BFF9F0000000000000002B
:101F4E000000F070003FE01DC77C0603878006008E
:101F5E003E0000000000000000003C1C7FF8000066
:101F6E0001830380FFF001E000000000000000008C
:101F7E0000E0700030E0019C1F9C07038006003CCF
:101F8E000000000000000000000000000000000142
:101F9E00800180CC00000000000000000000000066
:101FAE00E07800006003300F801C01800600000006
:101FBE000000000000000000000000000000000013
:101FCE000000C00000000000000000000000000043
:101FDE0000000000000000000000000600000000ED
:101FEE0000000000000000000000000000000000E3
:101FFE0000000000000000000000000000000000D3
:10200E000000000000000000F019830C30C60660CE
:10201E00660660660660660660630C30C1980F0047
:10202E00000000000000000000000000200603E099
:10203E00060060060060060060060060060060068E
:10204E0000603FC000000000000000000000000122
:10205E00F021840C60C60C00C01801803004008092
:10206E001042044047FC7FC000000000000000004A
:10207E0000000001E02306186181180180300E0077
:10208E001800800C60C60C60C2181F000000000013
:10209E0000000000000000801803803805809809B9
:1020AE0081182182184187FE01801801801807E0EF
:1020BE00000000000000000000000003FC3FC20012
:1020CE002002002002F031820C00C00C60C60C41D0
:1020DE0082181F0000000000000000000000000039
:1020EE007818C30C30020060067868C70660660672
:1020FE0060620630418C0F000000000000000000FE
:10210E0000000001FE3FE304208208008010010061
:10211E00200200200600600600600600000000009D
:10212E000000000000000001F830C6066066067070
:10213E0043CC0F033820C60660660660630C0F8022
:10214E00000000000000000000000000F030830CD2
:10215E0060460660660660E3161E600600C00C3020
:10216E0083181E00000000000000000000000000A8
:10217E000000000000000000000000000000000051
:0C218E0000000038038038000000000052
:107AB6004110000042101F0000C18241101C00410D
:037AC60010170096
:087B12007F217E16DEFEDFFC80
:017B1A002248
:10722800E49010A5F0A3F09010A5E0FCA3E0FDEC1D
:10723800124BB97BCF7A64799D7843124A0EE4FBEE
:10724800FAF97844124B171267EDE4FBFA79807863
:1072580044124A0E124BF2AD07AC069010A6E02578
:10726800E0FB9010A5E033FA749A2BF58274313A5A
:10727800F58374019325E0FFE49333FE74002FF542
:107288008274003EF583ECF0A3EDF0749A2BF5823E
:1072980074313AF58374019325E0FFE49333FE7467
:1072A800002FF58274083EF583E4F0A3F09010A651
:1072B800E004F070069010A5E004F0C39010A5E07B
:0972C80064809484500302722FCB
:0172D100229A
:10759E00E4FBFA7C017D00AF03AE02124E107C00BC
:1075AE007D02124E10ED4C6029EB25E0FFEA33FE12
:1075BE00749A2FF58274313EF58374019325E0FFA2
:1075CE00E49333FE74002FF58274003EF58374FE4F
:1075DE008027EB25E0FFEA33FE749A2FF582743193
:1075EE003EF58374019325E0FFE49333FE74002F80
:1075FE00F58274003EF5837402F0A3E4F00BBB0039
:0A760E00010AEB7003EA64047089BE
:01761800224F
:10775000E4FDFCC3EC64809482ED500E25E0FFEC68
:1077600033FEE42FFBEE34FE800D25E0FFEC33FE0C
:10777000C3E49FFB74069EFA749A2FF58274313E1F
:10778000F58374019325E0FFE49333FE74002FF535
:107790008274003EF583EAF0A3EBF00DBD00010C0E
:0877A000ED7003EC640470AB12
:0177A80022BE
:1050CC001272281256CFE49010A3F0A3F09010A304
:1050DC00E0FEA3E0FFC3EE6480948240030251DA49
:1050EC00EF25E0FFEE33FE74002FF58274083EF5D9
:1050FC0083E0FEA3E0FFEE3395E0FDFCA804A905D8
:10510C00AA06AB079010A4E025E0FF9010A3E033B3
:10511C00FE74002FF58274083EF583E0FEA3E0FFD9
:10512C00EE3395E0FDFC124E72C004C005C006C003
:10513C00079010A4E025E0FF9010A3E033FE74006C
:10514C002FF58274003EF583E0FEA3E0FFEE33956D
:10515C00E0FDFCA804A905AA06AB079010A4E02565
:10516C00E0FF9010A3E033FE74002FF58274003E34
:10517C00F583E0FEA3E0FFEE3395E0FDFC124E72EA
:10518C00D003D002D001D000EF2BFFEE3AFEED3968
:10519C00FDEC38FC124BB4127180124BF2AD07AC23
:1051AC00069010A4E025E0FF9010A3E033FE7400FD
:1051BC002FF58274003EF583ECF0A3EDF09010A473
:1051CC00E004F070069010A3E004F00250D91277BE
:1051DC00A97FA4120003E49010A3F0A3F09010A3F5
:1051EC00E0FEA3E0FFC39408EE648094805019EFB6
:1051FC002480FFE4FD12000E9010A4E004F070DD9A
:10520C009010A3E004F080D5E4FF12796E7F301289
:10521C00796E2005030254EAC205901000E0640385
:10522C0060030254EA1256CF9010A3E4F0A304F0EA
:10523C009010A3E0FEA3E0FFC39491EE64809481F0
:10524C00400302533FEF25E0FFEE33FE74002FF5D1
:10525C008274083EF583E0FEA3E0FFEE3395E0FD9B
:10526C00FCA804A905AA06AB079010A4E025E0FF52
:10527C009010A3E033FE74002FF58274083EF58382
:10528C00E0FEA3E0FFEE3395E0FDFC124E72C0048D
:10529C00C005C006C0079010A4E025E0FF9010A345
:1052AC00E033FE74002FF58274003EF583E0FEA31C
:1052BC00E0FFEE3395E0FDFCA804A905AA06AB07B8
:1052CC009010A4E025E0FF9010A3E033FE74002FB3
:1052DC00F58274003EF583E0FEA3E0FFEE3395E02B
:1052EC00FDFC124E72D003D002D001D000EF2BFF88
:1052FC00EE3AFEED39FDEC38FC124BB41271801213
:10530C004BF2AD07AC069010A4E025E0FF9010A383
:10531C00E033FE74002FF58274003EF583ECF0A3AD
:10532C00EDF09010A4E004F070069010A3E004F0EF
:10533C0002523C900028E0FEA3E0FFEE3395E0FD26
:10534C00FCE47B0AFAF9F8124EFDE47B717A02F95F
:10535C00F8124E72E47B80FAF9F8124EFDE47B50A1
:10536C00FAF9F8C3124F9D50157FA41200037D016A
:10537C007F8712000E9010177401F002541D9010CC
:10538C00A3E4F0A37417F09010A3E0FEA3E0FFC316
:10539C009490EE648094815066EF25E0FFEE33FE2E
:1053AC0074002FF58274003EF583E0FEA3E0FF7CD1
:1053BC00027D71124DFE7C007D80124E107C007DB2
:1053CC0018124E107C057D86124DFE7C007D6412F9
:1053DC004E10D3EF940AEE6480948040127FA41296
:1053EC0000037D027F8712000E9010177401F0905D
:1053FC0010A4E004F070909010A3E004F08088906A
:10540C001017E0700C7FA41200037D037F8712003D
:10541C000EE49010A3F0A3F090100174AAF0A3F086
:10542C009010A3E0FAA3E0FB7C017D00FFAE02121A
:10543C004E10901003EFF0A3EBF025E0FF9010A3BB
:10544C00E033FE74002FF58274003EF583E0FEA37A
:10545C00E0FFEE3395E0FDFCE47B717A02F9F81283
:10546C004E72E4FB7A05F9F8124EFD7808124FAE35
:10547C00901005EFF09010A4E025E0FF9010A3E051
:10548C0033FE74002FF58274003EF583E0FEA3E03A
:10549C00FFEE3395E0FDFCE47B717A02F9F8124ED5
:1054AC0072E4FB7A05F9F8124EFD901006EFF0E469
:1054BC00901027F0901001E0F599C2033003FD9095
:1054CC0010A4E004F070069010A3E004F09010A378
:1054DC00E064017004A3E064906003025424200192
:1054EC000302521E90101CE004F0C201127B08A9AA
:1054FC0007901041E9F074FF9010ABF0A3F0E92491
:10550C0030A3F0A37410F0E4A3F0FBFA7D14FC7F3D
:10551C0028FE125FA37FA4120003127B129010418D
:10552C00E075F00A84FD7F8012000E127B12901041
:10553C0041E075F00A84ADF07F8112000E127B12EF
:10554C0090101CE075F00A84FD7F8212000E127B15
:10555C001290101CE075F00A84ADF07F8312000EDF
:10556C00901041E064016003025606041279647FD6
:10557C003012796ED2C9C2029010AB7401F0A374D0
:10558C003CF074FFA3F0A3F07BDC7A017D277C0058
:10559C007F047E00126E269010EC7401F0A374CF81
:1055AC00F09010ABE4F0A3744BF0A374FFF0A37471
:1055BC0005F0A37426F0E4A3F07B677A017D28FC48
:1055CC007F78FE126B659010ABE4F0A37467F0A3C8
:1055DC0074FFF0A37411F0A374CEF0E4A3F07BD7A6
:1055EC007A017D50FC7F08FE126B65758CE5758A1F
:1055FC0025D28CE4901015F0A3F0901041E06402D9
:10560C0060030256A174021279647F3012796ED253
:10561C00C9C2029010AB7401F0A3743CF074FFA3E8
:10562C00F0A3F07BDC7A017D277C007F047E0012E6
:10563C006E269010EC7401F0A374CFF09010ABE4D4
:10564C00F0A3744BF0A374FFF0A37409F0A3745E81
:10565C00F0E4A3F07B677A017D28FC7F78FE126B67
:10566C00659010ABE4F0A37467F0A374FFF0A3741F
:10567C0017F0A3743EF0E4A3F07B7F7A017D50FC1D
:10568C007F08FE126B65758C04758A3BD28CE49096
:10569C001015F0A3F0901041E06403600302521E59
:1056AC0090100074031279677F3012796ED2C9C2E0
:1056BC0002758CCD758AA6D28CE4901015F0A3F0EF
:0356CC0002521E69
:03000B00025CB9DB
:105CB900C0E0C0F0C083C082C0D075D000C000C0B1
:0D5CC90001C002C003C004C005C006C00732
:105CD600D2EA12796A90101FE4F0A3EFF07F301237
:105CE600796EEFFD7C00901020E0FEE42DFFEC3E87
:105CF600A2E713FEEF13FF90101FEEF0A3EFF0D212
:105D0600C9D394FFEE6480948F401FE02400FF9077
:105D1600101FE034F0AB07FA3395E0F9F8A3E0245E
:105D260000FF90101FE034F0802690101FE0FEA3C5
:105D3600E0FFC3E49FFF74109EAB07FA3395E0F9CA
:105D4600F890101FE0FEA3E0FFC3E49FFF74109ECF
:105D5600FE3395E0FDFC124E72E47B20FAF9F81250
:105D660078DF90102312500D901020E02400F09060
:105D7600101FE034F0F0901000E064016003025E52
:105D86006090106AE0FCA3E0FDA3E0FEA3E0FF90B4
:105D96001023E0F8A3E0F9A3E0FAA3E0FBEF2BFF62
:105DA600EE3AFEED39FDEC38FC90106A12500DC348
:105DB60090101BE0941090101AE064809480506F4D
:105DC600C3901020E0941090101FE06480948040EF
:105DD6005E901022E004F07006901021E004F0308E
:105DE600044D90106AE0FCA3E0FDA3E0FEA3E0FFF3
:105DF60090102E12500D901015E0FFA3E090102C7D
:105E0600CFF0A3EFF0901021E0FFA3E090101DCF9C
:105E1600F0A3EFF090106A125019000000009010E5
:105E260015E4F0A3F0901021F0A3F0D205C204907F
:105E36001016E004F07006901015E004F0901015AE
:105E4600E0B41207A3E0B4C002D20490101FE0FF32
:105E5600A3E090101ACFF0A3EFF0901000E0F964E1
:105E6600026003025EF5901015E0FEA3E0FFD394F6
:105E760000EE9400405490101FE0FCA3E0FDEF25D7
:105E8600E0FBEE33FA74982BF58274313AF583749D
:105E9600019325E0FFE49333FE74002FF58274002E
:105EA6003EF583ECF0A3EDF074982BF58274313A4D
:105EB600F58374019325E0FFE49333FE74002FF518
:105EC6008274083EF583E4F0A3F0901016E004F027
:105ED6007006901015E004F0901015E0B40410A3BD
:105EE600E0B4010BC28CD205901015E4F0A3F0E9E2
:105EF60064036003025F86901015E0FEA3E0FFD303
:105F06009400EE9400405490101FE0FCA3E0FDEFD7
:105F160025E0FBEE33FA74982BF58274313AF5835B
:105F260074019325E0FFE49333FE74002FF5827429
:105F3600003EF583ECF0A3EDF074982BF5827431F6
:105F46003AF58374019325E0FFE49333FE74002F42
:105F5600F58274083EF583E4F0A3F0901016E00491
:105F6600F07006901015E004F0901015E0B40410DF
:105F7600A3E0B4010BC28CD205901015E4F0A3F097
:025F8600C2EA6D
:105F8800D007D006D005D004D003D002D001D0006D
:0B5F9800D0D0D082D083D0F0D0E03217
:0300230002784D13
:0D784D00C0E0C083C082C0D075D000C0076D
:10785A00309806C298AF998F99309925C29990109D
:10786A0027E004F0E0FFC39406500F74012FF5825D
:10787A00E43410F583E0F5998007901027E4F0D2FC
:01788A0003FA
:0B788B00D007D0D0D082D083D0E032F4
:03005B00027B2AFB
:037B2A00D2013253
:10737C009010EC74F8F0A3E4F09010ABF0A374232D
:10738C00F0A374FFF0A37400F0A3745EF0E4A3F018
:10739C007B777A01FDFC7F68FE126B65E49010EC44
:1073AC00F0A3F090116E04F0A3743FF07BDF7A0130
:1073BC007D247C00E4FFFE12749A90116E7401F02F
:1073CC00A3743DF07BDD7A017D267C007F027E007C
:1073DC0012749A9010EC7401F0A374CFF09010AB6F
:1073EC00E4F0A3744BF0A374FFF0A3740DF0A3743A
:1073FC0096F0E4A3F07B677A017D28FC7F78FE028F
:02740C006B65AE
:0A796400901000F0C28CC2C97F80B1
:10796E007E80E4FDD2C30000FCED25E0FDEF5E60FD
:10797E0004D2C08002C2C0C2C3000000000000D208
:10798E00C330C104ED4401FDEEC313FE0CECB4088C
:03799E00D8AF055A
:0179A10022C3
:10399A00FFFFF80007E0001FFFE0F81F07FF000025
:1039AA00000000000000000000000000000000000D
:1039BA000000183C3C3C18181800181800000000B9
:1039CA000066666624000000000000000000000097
:1039DA000000006C6CFE6C6C6CFE6C6C00000000ED
:1039EA0018187CC6C2C07C0686C67C18180000005F
:1039FA0000000000C2C60C183060C6860000000035
:103A0A000000386C6C3876DCCCCCCC760000000038
:103A1A0000303030600000000000000000000000AC
:103A2A0000000C18303030303030180C0000000024
:103A3A00000030180C0C0C0C0C0C183000000000A4
:103A4A000000000000663CFF3C6600000000000029
:103A5A00000000000018187E18180000000000007E
:103A6A0000000000000000000018181830000000D4
:103A7A0000000000000000FE00000000000000003E
:103A8A0000000000000000000000181800000000FC
:103A9A000000000002060C183060C0800000000020
:103AAA0000007CC6C6CED6D6E6C6C67C000000009C
:103ABA0000001838781818181818187E0000000026
:103ACA0000007CC6060C183060C0C6FE000000006C
:103ADA0000007CC606063C060606C67C00000000FE
:103AEA0000000C1C3C6CCCFE0C0C0C1E00000000F0
:103AFA000000FEC0C0C0FC0E0606C67C0000000026
:103B0A0000003860C0C0FCC6C6C6C67C0000000003
:103B1A000000FEC606060C183030303000000000E7
:103B2A0000007CC6C6C67CC6C6C6C67C00000000AD
:103B3A0000007CC6C6C67E0606060C780000000099
:103B4A00000000001818000000181800000000000B
:103B5A0000000000181800000018183000000000CB
:103B6A00000000060C18306030180C060000000037
:103B7A00000000000000FE0000FE0000000000003F
:103B8A000000006030180C060C18306000000000BD
:103B9A0000007CC6C60C181818001818000000008F
:103BAA000000007CC6C6DEDEDEDCC07C0000000051
:103BBA00000010386CC6C6FEC6C6C6C600000000A5
:103BCA000000FC6666667C66666666FC00000000AD
:103BDA0000003C66C2C0C0C0C0C2663C0000000013
:103BEA000000F86C6666666666666CF8000000009F
:103BFA000000FE6662687868606266FE0000000087
:103C0A000000FE6662687868606060F0000000008C
:103C1A0000003C66C2C0C0DEC6C6663A00000000AC
:103C2A000000C6C6C6C6FEC6C6C6C6C60000000096
:103C3A0000003C18181818181818183C0000000042
:103C4A0000001E0C0C0C0C0CCCCCCC780000000034
:103C5A000000E6666C6C78786C6666E60000000028
:103C6A000000F06060606060606266FE0000000054
:103C7A000000C6EEFEFED6C6C6C6C6C600000000D6
:103C8A000000C6E6F6FEDECEC6C6C6C600000000C6
:103C9A000000386CC6C6C6C6C6C66C38000000002E
:103CAA000000FC6666667C60606060F000000000F0
:103CBA0000007CC6C6C6C6C6C6D6DE7C0C0E000090
:103CCA000000FC6666667C6C666666E600000000BC
:103CDA0000007CC6C660380C06C6C67C0000000020
:103CEA0000007E7E5A1818181818183C00000000A8
:103CFA000000C6C6C6C6C6C6C6C6C67C0000000048
:103D0A000000C6C6C6C6C6C6C66C3810000000008B
:103D1A000000C6C6C6C6C6D6D6FE6C6C0000000039
:103D2A000000C6C66C6C38386C6CC6C60000000051
:103D3A000000666666663C181818183C0000000009
:103D4A000000FEC6860C183060C2C6FE00000000E5
:103D5A0000003C30303030303030303C0000000061
:103D6A0000000080C0E070381C0E0602000000004F
:103D7A0000003C0C0C0C0C0C0C0C0C3C0000000061
:103D8A0010386CC6000000000000000000000000AF
:103D9A0000000000000000000000000000FF00001A
:103DAA003030180000000000000000000000000091
:103DBA000000000000780C7CCCCCCC76000000001F
:103DCA000000E06060786C66666666DC00000000F1
:103DDA0000000000007CC6C0C0C0C67C0000000015
:103DEA0000001C0C0C3C6CCCCCCCCC760000000047
:103DFA0000000000007CC6FEC0C0C67C00000000B7
:103E0A000000386C6460F060606060F000000000E0
:103E1A00000000000076CCCCCCCCCC7C0CCC78005A
:103E2A000000E060606C7666666666E60000000088
:103E3A0000001818003818181818183C000000005C
:103E4A0000000606000E06060606060666663C0022
:103E5A000000E06060666C78786C66E6000000003E
:103E6A0000003818181818181818183C0000000014
:103E7A000000000000ECFED6D6D6D6D60000000020
:103E8A000000000000DC66666666666600000000E8
:103E9A0000000000007CC6C6C6C6C67C0000000042
:103EAA000000000000DC66666666667C6060F00002
:103EBA00000000000076CCCCCCCCCC7C0C0C1E00D4
:103ECA000000000000DC7662606060F00000000024
:103EDA0000000000007CC660380CC67C00000000B0
:103EEA000000103030FC30303030361C000000004A
:103EFA000000000000CCCCCCCCCCCC76000000007A
:103F0A00000000000066666666663C180000000055
:103F1A000000000000C6C6C6D6D6FE6C000000002F
:103F2A000000000000C66C3838386CC6000000007B
:103F3A000000000000C6C6C6C6C6C67E060CF8004B
:103F4A000000000000FECC183060C6FE0000000031
:103F5A0000000E18181870181818180E0000000023
:103F6A00000018181818001818181818000000006F
:103F7A000000701818180E181818187000000000A1
:103F8A00000076DC000000000000000000000000D5
:103F9A000000000010386CC6C6C6FE000000000013
:103FAA0000000000000000000000000000000404FF
:103FBA00040404040004000000140A0A00000000BB
:103FCA0000000000000014143F140A3F0A0A00000F
:103FDA0000041E1505060C14150F04000000121526
:103FEA000D0A142C2A1200000000040A0A1E1515D4
:103FFA000936000000020201000000000000000073
:10400A000020100808080808081020000002040808
:10401A00080808080804020000000004150E0E151E
:10402A000400000000000404041F0404040000004B
:10403A000000000000000000000202010000000071
:10404A00001F000000000000000000000000000047
:10405A00000200000010080808040402020201001D
:10406A0000000E1111111111110E000000000406BA
:10407A0004040404040E000000000E1111080402D6
:10408A00011F000000000E11100C1010110E00008C
:10409A000000080C0A0A091E0818000000001F0187
:1040AA00010F1010110E000000000E09010F11116E
:1040BA00110E000000001F09080404040404000093
:1040CA0000000E11110E1111110E000000000E1148
:1040DA0011111E10120E0000000000000400000062
:1040EA0000040000000000000004000000040400B6
:1040FA00002010080402040810200000000000003C
:10410A001F00001F00000000000204081020100811
:10411A000402000000000E1111080404000400004B
:10412A0000000E111915151D011E000000000404DF
:10413A000C0A0A1E1233000000000F12120E12128D
:10414A00120F000000001E1101010101110E0000F2
:10415A0000000F1212121212120F000000001F129A
:10416A000A0E0A02121F000000001F120A0E0A029B
:10417A000207000000001C1201013911120C000094
:10418A0000003312121E12121233000000001F0424
:10419A0004040404041F000000003E08080808087C
:1041AA0008090700000037120A060A0A1237000037
:1041BA000000070202020202223F000000001B1B4D
:1041CA001B1B15151515000000003B1216161A1AAE
:1041DA001217000000000E1111111111110E00002A
:1041EA0000000F12120E02020207000000000E1158
:1041FA0011111117190E180000000F12120E0A12CF
:10420A001237000000001E1101060810110F0000ED
:10421A0000001F1504040404040E000000003312F9
:10422A0012121212120C000000003312120A0A0CA7
:10423A000404000000001515150E0A0A0A0A0000F7
:10424A0000001B0A0A04040A0A1B000000001B0AD9
:10425A000A040404040E000000001F0908040402F2
:10426A00121F0000001C04040404040404041C00BB
:10427A00000202020404080808100000000E0808E0
:10428A000808080808080E0000040A0000000000D8
:10429A000000000000000000000000000000003FD5
:1042AA000004000000000000000000000000000000
:1042BA00000C121C123C000000000302020E121233
:1042CA00120E000000000000001C1202021C000076
:1042DA0000001810101C1212123C0000000000000E
:1042EA00000C121E021C000000003804041E040404
:1042FA00041E000000000000003C120C021E221CDA
:10430A0000000302020E121212370000000004001D
:10431A0000060404040E000000000800000C08084F
:10432A000808080700000302023A0A0E12370000C2
:10433A000000070404040404041F00000000000035
:10434A00000F15151515000000000000000F1212CD
:10435A001237000000000000000C1212120C0000BC
:10436A0000000000000F1212120E020700000000E7
:10437A00001C1212121C103800000000001B06025A
:10438A000207000000000000001E020C101E0000C0
:10439A0000000004040E04040418000000000000D9
:1043AA00001B1212123C0000000000000037120A23
:1043BA000C040000000000000015150E0A0A000097
:1043CA0000000000001B0A040A1B00000000000095
:1043DA000037120A0C04040300000000001E08043F
:1043EA00041E000000180808080408080808180035
:1043FA000808080808080808080808080006040445
:10440A000408040404040600022518000000000041
:10441A000000000000000000000000000000000092
:10442A00000000000000000808080808080800004A
:10443A001818000000486C24120000000000000058
:10444A00000000000000002424247F1212127F12B0
:10445A00121200000000081C2A2A0A0C1828282A0E
:10446A002A1C080800000022251515152A5854543C
:10447A00542200000000000C1212120A762529119B
:10448A00916E000000060604030000000000000010
:10449A000000000000402010100808080808081052
:1044AA001020400000020408081010101010100814
:1044BA00080402000000000008086B1C1C6B0808B6
:1044CA000000000000000000080808087F0808082B
:1044DA0008000000000000000000000000000000CA
:1044EA00060604030000000000000000FE000000B1
:1044FA0000000000000000000000000000000000B2
:10450A000606000000008040402020101008080421
:10451A00040202000000001824424242424242427F
:10452A0024180000000000080E08080808080808F7
:10453A00083E00000000003C4242422020100804CD
:10454A00427E00000000003C4242201820404042C7
:10455A00221C0000000000203028242422227E2071
:10456A00207800000000007E0202021A2640404223
:10457A00221C0000000000382402021A264242428D
:10458A00241800000000007E2222101008080808E3
:10459A00080800000000003C42424224182442421B
:1045AA00423C000000000018244242426458404045
:1045BA00241C000000000000000018180000000081
:1045CA0018180000000000000000000800000000A9
:1045DA000008080400000040201008040204081023
:1045EA00204000000000000000007F0000007F0063
:1045FA0000000000000000020408102040201008FB
:10460A00040200000000003C424246402010100014
:10461A00181800000000001C225A555555552D4205
:10462A00221C00000000000808181414243C22422E
:10463A0042E700000000001F2222221E22424242BC
:10464A00221F00000000007C4242010101010142D8
:10465A00221C00000000001F224242424242424203
:10466A00221F00000000003F4212121E12120242D4
:10467A00423F00000000003F4212121E12120202C4
:10468A00020700000000003C2222010101712122E0
:10469A00221C0000000000E7424242427E4242429F
:1046AA0042E700000000003E080808080808080859
:1046BA00083E00000000007C1010101010101010AE
:1046CA001010110F0000007722120A0E0A1212228D
:1046DA002277000000000007020202020202020220
:1046EA00427F000000000077363636362A2A2A2A08
:1046FA002A6B0000000000E346464A4A52525262C0
:10470A00624700000000001C2241414141414141F1
:10471A00221C00000000003F424242423E020202C6
:10472A00020700000000001C2241414141414D5353
:10473A00321C60000000003F4242423E1212222216
:10474A0042C700000000007C424202041820404296
:10475A00423E00000000007F4908080808080808CF
:10476A00081C0000000000E7424242424242424224
:10477A00423C0000000000E742422224241414189C
:10478A00080800000000006B49494949555536227E
:10479A0022220000000000E74224241818182424CA
:1047AA0042E70000000000772222141408080808D3
:1047BA00081C00000000007E21201010080404429A
:1047CA00423F000000780808080808080808080896
:1047DA0008087800000002020404080808101020E3
:1047EA0020204040001E1010101010101010101041
:1047FA0010101E00003844000000000000000000F5
:10480A00000000000000000000000000000000009E
:10481A00000000FF00060800000000000000000081
:10482A0000000000000000000000003C4278444202
:10483A0042FC0000000000030202021A2642424221
:10484A00261A00000000000000000038440202029C
:10485A004438000000000060404040784442424230
:10486A0064D80000000000000000003C427E020202
:10487A00423C0000000000F08808087E080808088A
:10488A00083E0000000000000000007C22221C02FA
:10489A003C42423C000000030202023A46424242C3
:1048AA0042E700000000000C0C00000E080808088F
:1048BA00083E000000000030300000382020202090
:1048CA002020221E0000000302020272120A16129F
:1048DA00227700000000000E0808080808080808E7
:1048EA00083E0000000000000000007F92929292B1
:1048FA0092B70000000000000000003B464242421E
:10490A0042E70000000000000000003C4242424230
:10491A00423C0000000000000000001B2642424208
:10492A00221E0207000000000000007844424242B2
:10493A00447840E000000000000000774C040404C2
:10494A00041F0000000000000000007C42023C40FE
:10495A00423E0000000000000008083E080808085F
:10496A00083000000000000000000063424242429A
:10497A0062DC000000000000000000E7422424146A
:10498A000808000000000000000000EB49495555E6
:10499A0022220000000000000000007624181818E7
:1049AA00246E000000000000000000E742242414E6
:1049BA0018080807000000000000007E22100808FE
:1049CA00447E000000C0202020202010202020202B
:1049DA002020C0001010101010101010101010100D
:1049EA00101010100006080808080810080808081F
:1049FA00080806000C32C200000000000000000097
:044A0A0000000000A8
:0A7AC9004210EC00004210EAFFFF3B
:107A4A00E4FDFCC3ED9FEE6480F8EC648098501569
:107A5A00E4FBFA0BBB00010ABA03F8BBE8F50DBD5B
:057A6A0000010C80DEAC
:017A6F0022F4
:0B7A7000127A2F9010F9E0FEA3E0FF57
:107A7B00AD07AC06C2AFC2FBC2C1ECFF8F80AF0536
:0B7A8B008FA0C2C2D2C2D2C1D2AF2273
:107A1B00127A2FE4FF127A2FE4FF127A2FE4FF126F
:047A2B007A2FE4FFCB
:107A2F00AD07AC06C2AFD2FBC2C1ECFF8F80AF0572
:0B7A3F008FA0C2C2D2C2D2C1D2AF22BF
:0B7AFD009010F5E0FEA3E0FF027A7B92
:1077FC009010B5EEF0A3EFF0A3ECF0A3EDF0901029
:10780C00F7127A769010B5E0FF7E00127A2FA3E083
:10781C00FF127A2FEAFF127A2FAF037E00127A70D2
:10782C009010B7E0FF7E00127A2FA3E0FF127A2FA0
:10783C009010BBE0FF127A2FA3E0FF127A2F027A8E
:01784C00FD3E
:1076EC009010B7EEF0A3EFF0AB05AA049010F712D0
:1076FC007A769010B7E0FF7E00127A2FA3E0FF128B
:10770C007A2FE024019010B7E03400FF7E00127A4B
:10771C002FA3E02401FF9010B7E03400FE127A7022
:10772C00EAFF7E00127A2FAF03127A2FEB2401E4CA
:10773C003AFF7E00127A2FEB2401FFE43AFE127A14
:04774C002F027AFD91
:1079E0009010F7E4F0A3742AF0A3E4F0A3742BF052
:1079F0009010F5E4F0A3742CF09010F47401F09062
:107A000010EEF0A374E0F0A37401F0A37440F07FD3
:0B7A1000367E00127A7B7F28027A2F5E
:1061AC00D2FC7F327E00127A4AC2FC127A4AD2FCAE
:1061BC00127A4A7F11127A7B7F64127A4A7F131209
:1061CC007A7B7F64127A4A7F36127A7B7F02127A4C
:1061DC002F7F3A127A7B7F05127A2F7FF0127A7B0F
:1061EC007F5A127A2F7F5A127A2F7FF1127A7B7F85
:1061FC005A127A2F7F5A127A2F7FF7127A7B127AE1
:10620C00287F10127A2F7F02127A2A7FF8127A7B5B
:10621C007F11127A2A7FF9127A7B7F17127A2F7FDD
:10622C0044127A7BE4FF127A2F7F01127A2F7FF2CD
:10623C00127A7B7F3B127A2F7F30127A2F7F0312D8
:10624C007A2F7F08127A2F7F08127A2F7F08127A02
:10625C002F7F08127A2A7F08127A2F7F08127A1B56
:10626C007F30127A2F7F08127A2F7F08127A2F7FB5
:10627C0008127A2F7F08127A2F7FF4127A7B7F060E
:10628C00127A1B127A1E7F52127A2F7F02127A2AEE
:10629C007F52127A2F7F02127A2F7FF5127A7BE4CB
:1062AC00FF127A2F7F31127A2F7F54127A257F04B6
:1062BC00127A257F31127A2F7F54127A2F7FF612A1
:1062CC007A7B127A287F08127A2F7F03127A2F7F1B
:1062DC0001127A2A7F01127A2A7FFA127A7B7F04C2
:1062EC00127A2F7F37127A2A7F20127A2F7F21126F
:1062FC007A2F7F1F127A2F7F2A127A2F7F19127A08
:10630C002F7F28127A2F7F21127A2F7F2E127A2F2D
:10631C007F2B127A2F7F19127A207FFB127A7B7FC8
:10632C0057127A2F7F22127A2F7F0E127A2F7F2FFD
:10633C00127A2F7F30127A2F7F1F127A2F7F16122C
:10634C007A2F7F14127A2F7F30127A2F7F2A127AAB
:10635C002F7F18127A2F7F1D127A2F7F19127A2015
:10636C007F78127A4A7F29127A7B9010F5E4F0A399
:10637C00742CF09010F47401F09010EEF0A374E013
:10638C00F0A37401F0A37440F09010F7E4F0A37440
:10639C002AF0A3E4F0A3742BF07F36127A7B7FE80B
:0363AC00027A2F43
:0872D20090114BEEF0A3EFF068
:1072DA00901151125019000000009010EEE0FEA328
:1072EA00E0FFA3E0FCA3E0FD12504A9011511250B6
:1072FA000D9010EFE024FFFB9010EEE034FFFA90BF
:10730A0010F1E024FFFE9010F0E034FF9010BBF083
:10731A00A3CEF0E4FDFCFFFE1277FC90114D125053
:10732A001900000000901151E0FCA3E0FDA3E0FE6B
:10733A00A3E0FF90114DE0F8A3E0F9A3E0FAA3E07F
:10734A00FBC3124F9D502A90114BE0FEA3E0FF129F
:10735A007A2FA3E0FCA3E0FDA3E0FEA3E02401FF53
:10736A00E43EFEE43DFDE43CFC90114D12500D80DC
:01737A00B45E
:01737B0022EF
:10002600901159FEE0FCA3E0FD901158E02DFD90E3
:0D0036001157E03C90115DFCE0FAA3E0FBE7
:100043009010B5EAF0A3EBF01276EC9010B5E0FE59
:06005300A3E0FF027A2F7A
:10752000901168E0FAA3E0FB90116CE0F8A3E0C3CF
:0B7530009BFBE89ACB2401CB3400FA4F
:10753B00901174EAF0A3EBF0901170EEF0A3EFF062
:10754B00A3ECF0A3EDF0C006C007A3E0FEA3E0FFA1
:10755B00901170E0FAA3E02FFFEA3ECF24FFFBEF80
:10756B0034FFFAA3E0FFA3E09010BBCFF0A3EFF042
:10757B00D007D0061277FC90117474FFF5F0124E01
:10758B005C45F0600D9010ECE0FEA3E0FF127A2F4B
:03759B0080E52266
:10761900901176EEF0A3EFF090117AEAF0A3EBF077
:10762900901178ECF0A3EDF0901176E0FAA3E0FB6D
:10763900FFAE02C006C00790117AE0FEA3E0FF90FA
:107649001178E0F8A3E02FFFE83ECF24FFCF34FF05
:107659009010BBF0A3EFF0D007D0061277FC901181
:107669007A74FFF5F0124E5C45F0600D9010ECE075
:0A767900FEA3E0FF127A2F80E52245
:0E65A1009010BDEEF0A3EFF0A3ECF0A3EDF030
:1065AF00E49010C7F0A3F0A3F0A3F09010BDE0FEAD
:1065BF00A3E0FFC3EB9FFFEA9E9010CBF0A3EFF099
:1065CF009010BFE0FAA3E0FBC39010C4E09BFE90D5
:1065DF0010C3E09A9010CDF0A3CEF09010BDE0FF65
:1065EF00A3E09010D5CFF0A3EFF0A3EAF0A3EBF068
:1065FF009010CBE0FEA3E0FFD39400EE6480948074
:10660F00400A9010D1E4F0A304F08021EF4E7008FF
:10661F009010D1F0A3F0801574FF9010D1F0A3F07B
:10662F00C3E49FFFE49E9010CBF0A3EFF09010CD4A
:10663F00E0FEA3E0FFD39400EE64809480400A90C4
:10664F0010D3E4F0A304F08021EF4E70089010D324
:10665F00F0A3F0801574FF9010D3F0A3F0C3E49F64
:10666F00FFE49E9010CDF0A3EFF09010CDE0FEA3CD
:10667F00E0FF9010CBE0FCA3E0FDD39FEE6480F829
:10668F00EC6480989010CF4007ECF0A3EDF08005FC
:10669F00EEF0A3EFF0E49010C5F0A3F09010D0E06F
:1066AF002401FF9010CFE03400FED39010C6E09F7E
:1066BF009010C5E09E400302678E9010D5E0FEA3B8
:1066CF00E0FFA3E0FCA3E0FD9010EC12003E901061
:1066DF00CBE0FEA3E0FF9010C8E02FF09010C7E0D2
:1066EF003EF09010CDE0FEA3E0FF9010CAE02FF037
:1066FF009010C9E03EF09010CFE0FEA3E0FF9010A5
:10670F00C7E0FCA3E0FDD39FEE6480F8EC648098B3
:10671F004020ED9FFFEC9E9010C7F0A3EFF090107C
:10672F00D1E0FEA3E0FF9010D6E02FF09010D5E05F
:10673F003EF09010CFE0FEA3E0FF9010C9E0FCA365
:10674F00E0FDD39FEE6480F8EC6480984020ED9FCD
:10675F00FFEC9E9010C9F0A3EFF09010D3E0FEA3D2
:10676F00E0FF9010D8E02FF09010D7E03EF090109F
:0F677F00C6E004F070069010C5E004F00266ABAF
:01678E0022E8
:10749A0090116CEAF0A3EBF0901168EEF0A3EFF014
:1074AA00A3ECF0A3EDF0127520901168E0FEA3E0C2
:1074BA00FF90116EE0FCA3E0FD127520901168E0C8
:1074CA00FEA3E0FFA3E0FCA3E0FD90116AE0FAA3AB
:1074DA00E0FB90116EE0F8A3E0C39BFBE89ACB2493
:1074EA0001CB3400FA12761990116CE0FEA3E0FF8A
:1074FA0090116AE0FCA3E0FD90116AE0FAA3E0FBB8
:10750A0090116EE0F8A3E0C39BFBE89ACB2401CB71
:06751A003400FA027619AC
:0E6E26009010A5EEF0A3EFF0A3ECF0A3EDF0BA
:106E34009010A5E0FEA3E0FFC3EB9FFFEA9ECF24E2
:106E440001CF34009010B1F0A3EFF09010A7E0FE52
:106E5400A3E0FFC39010ACE09FFF9010ABE09ECF87
:106E64002401CF34009010B3F0A3EFF09010A7E00A
:106E7400FCA3E0FD9010ABE0FFA3E09010BBCFF0CB
:106E8400A3EFF09010A5E0FEA3E0FF1277FCE490DE
:106E940010AFF0A3F09010B3E0FEA3E0FFC3901096
:106EA400B0E09F9010AFE09E5032E4FBFAD3901014
:106EB400B2E09B9010B1E09A40129010ADE0FEA3B6
:106EC400E0FF127A2F0BBB00010A80E19010B0E0C2
:106ED40004F070C19010AFE004F080B99010EFE0BE
:106EE40024FFFB9010EEE034FFFA9010F1E024FF51
:106EF400FE9010F0E034FF9010BBF0A3CEF0E4FD60
:066F0400FCFFFE0277FC19
:1069170090115BF0A3EFF09010DDE0FFA3E0901182
:0E6927005DCFF0A3EFF09010D9E0FEA3E0FFEB
:10693500901157ECF0A3EDF0901155EEF0A3EFF0A8
:10694500901159EAF0A3EBF02FFFEE3AA3120029BC
:10695500901159E0FEA3E0FFC3901156E09FFF9010
:106965001155E09EFE90115B12002A901159E0FE30
:10697500A3E0FF901156E02FFF901155E03EFE90E9
:10698500115BE0FCA3E0FDC3901158E09DFD901163
:1069950057E09C12003A901159E0FEA3E0FFC39026
:1069A5001156E09FFF901155E09EFE90115BE0FCB3
:1069B500A3E0FDC3901158E09DFD901157E09C1296
:1069C500003A90115BE0FEA3E0FF901156E02FFF27
:1069D500901155E03E12002690115BE0FEA3E0FF0A
:1069E500C3901156E09FFF901155E09E120026902E
:1069F500115BE0FEA3E0FF901156E02FFF901155CB
:106A0500E03EFE901159E0FCA3E0FDC3901158E073
:106A15009DFD901157E09C12003A90115BE0FEA39A
:106A2500E0FFC3901156E09FFF901155E09EFE9048
:106A35001159E0FCA3E0FDC3901158E09DFD9011B4
:0F6A450057E09CFC90115DE0FAA3E0FB020043D8
:1063AF009010D9EEF0A3EFF0A3ECF0A3EDF0A3EA79
:0463BF00F0A3EBF06C
:1063C300E49010E2F0A3F09010DFE0FEA3E0FF9072
:1063D30010E4EEF0A3EFF025E0FFEE33FEC3740309
:1063E3009F9010E9F0E49E9010E8F09010E1E070C7
:1063F300030264EE9010E4E0FEA3E0FF9010E2E0FD
:10640300FCA3E0FDD39FEE6480F8EC648098400326
:106413000265A09010E6ECF0A3EDF09010E4E0FE2E
:10642300A3E0FFD39010E7E09FEE6480F89010E6BE
:10643300E0648098502B9010DBE0FCA3E0FD90100B
:10644300E2E0FAA3E0FB9010E6E0FFA3E0CF1269DD
:10645300179010E7E004F070C29010E6E004F080BB
:10646300BA9010E8E0FCA3E0FDC3EC648094805094
:10647300239010E2E0FEA3E07802C333CE33CED8FC
:10648300F92DFFEC3ECF2406CF34009010E8F0A3A3
:10649300EFF080439010E4E0FEA3E0FFC39010E32D
:1064A300E09FFF9010E2E09EFEEF7802C333CE330D
:1064B300CED8F9FF9010E9E02FFF9010E8E03ECF2F
:1064C300240ACF3400F0A3EFF09010E5E024FFF0AE
:1064D3009010E4E034FFF09010E3E004F060030276
:1064E30063F79010E2E004F00263F79010E4E0FE3B
:1064F300A3E0FF9010E2E0FAA3E0FBD39FEE6480F9
:10650300F8EA64809840030265A09010DBE0FCA3E6
:10651300E0FDEE1269179010E8E0FCA3E0FDC3EC88
:106523006480948050239010E2E0FEA3E07802C3DD
:1065330033CE33CED8F92DFFEC3ECF2406CF340033
:106543009010E8F0A3EFF080439010E4E0FEA3E0A6
:10655300FFC39010E3E09FFF9010E2E09EFEEF7810
:1065630002C333CE33CED8F9FF9010E9E02FFF906A
:1065730010E8E03ECF240ACF3400F0A3EFF09010F0
:10658300E5E024FFF09010E4E034FFF09010E3E046
:0D65930004F070069010E2E004F00264EEE7
:0165A00022D8
:106C52009010FBEEF0A3EFF0A3ECF0A3EDF0A3EAAB
:046C6200F0A3EBF0C0
:106C6600C007A3E0FFA3E09010BBCFF0A3EFF0D0E6
:106C7600071277FCE4901106F0A3F09010FDE0FEF9
:106C8600A3E0FFC3901102E09FFF901101E09ECFA9
:106C96002401FDE43FFC9010FBE0FEA3E0FFC3905F
:106CA6001100E09FFF9010FFE09ECF2401CF34003B
:106CB600FE124DFEC3901107E09F901106E09E5014
:106CC6004DA3E025E0FF901106E033FE901103E0AE
:106CD600FBA3E0FAA3E0F98F828E83124DD19011C7
:106CE60008F0E92FF9EA3EFA900001124DD1FBFEB9
:106CF600901108E0FDEDFF127A2F901107E004F0E5
:106D06006003026C81901106E004F0026C81901021
:106D1600EFE024FFFB9010EEE034FFFA9010F1E074
:106D260024FFFE9010F0E034FF9010BBF0A3CEF0ED
:086D3600E4FDFCFFFE0277FC06
:106B65009010A5EEF0A3EFF0A3ECF0A3EDF0A3EAEF
:046B7500F0A3EBF0AE
:106B7900C007A3E0FFA3E09010BBCFF0A3EFF0D0D4
:106B8900071277FC9010A7E0FEA3E0FFC39010ACBA
:106B9900E09FFF9010ABE09ECF2401FDE43FFC9005
:106BA90010A5E0FEA3E0FFC39010AAE09FFF90109C
:106BB900A9E09ECF2401CF3400FE124DFE9010B102
:106BC900EEF0A3EFF0E4A3F0A3F09010B1E0FEA380
:106BD900E07803CEC313CE13D8F9FFC39010B4E005
:106BE9009F9010B3E09E50609010ADE0FBA3E0FAD7
:106BF900A3E0F9124DB8F99010AEE475F001124E08
:106C0900467B80E4FAE95B60109010B0E060059083
:106C190010EA80139010EC800E9010B0E06005909F
:106C290010EC80039010EAE0FEA3E0FF127A2FEB4C
:106C3900C313FB0AEAB408CD9010B4E004F0708ADB
:086C49009010B3E004F080821A
:016C51002220
:10768300901140EEF0A3EFF0A3ECF0A3EDF0C006F1
:10769300C007901140E0F8A3E02BFBE83ACB24FFAE
:1076A300CB34FFFAC002C003901146E0FAA3E0FB1B
:1076B300901142E0F8A3E02BFBE83ACB24FFFEEB6A
:1076C30034FF901101F0A3CEF0901148E0F9A3E04C
:1076D300FAA3E0901103C9F0A3EAF0A3E9F0D00301
:0976E300D002D007D006026C525F
:106FEC00901109EEF0A3EFF0A3ECF0A3EDF0A3EBFE
:076FFC00F0A3EAF0A3E9F0A5
:10700300E4901115F0901110E075F022A490111680
:10701300F0901116E070030270B424DEF0901115A5
:10702300E075F022A4FF90110DE0FBA3E0FAA3E0CA
:107033002FF9EA35F0FAE92402F9E43AFA90111249
:10704300EBF0A3EAF0A3E9F0A3E075F011A4FDAC23
:10705300F0901109E0FAA3E0FB2DFFEA3CFEC00625
:10706300C007EB2DFFEA3CCF240FFBE43FFAC0023D
:10707300A3E0FCA3E0FD240FFEE43C9010ABF0A3DF
:10708300CEF0901112E0F9A3E0FAA3E09010ADC99D
:10709300F0A3EAF0A3E9F0901111E09010B0F0D062
:1070A30002D007D006126B65901115E004F0027050
:0170B30014C8
:0170B40022B9
:105FA3009010A5EEF0A3EFF09010A9EAF0A3EBF0A8
:085FB3009010A7ECF0A3EDF043
:105FBB009010ECE0FFA3E09010B3CFF0A3EFF090C4
:105FCB0010ADE024E0F0A3E0F9C313FF7E009010C6
:105FDB00A5E0FAA3E02FFFEE3ACF24FFFBEF34FF4F
:105FEB00FAE9FFA3E0F8A3E02FFFEE38CF24FFCFB1
:105FFB0034FF9010BBF0A3EFF09010A5E0FEA3E0F0
:10600B00FF1277FC9010AFE060030260B29010B10A
:10601B00F09010AEE0FF9010B1E0FEC39F40030282
:10602B006173EFB40C179010ADE075F00CA424AABB
:10603B00F582E5F0343FF583E5822E801A9010B19E
:10604B00E0FF9010ADE075F010A4241EF582E5F092
:10605B003444F583E5822FF582E43583F583E493AD
:10606B009010B0F0E49010B2F09010AEE0C313FFBC
:10607B009010B2E0C39F50269010B0E030E0059036
:10608B0010A980039010ABE0FEA3E0FF127A2F90D3
:10609B0010B0E0C313F09010B2E004F080CB90107E
:1060AB00B1E004F002601CE49010B1F09010AEE08F
:1060BB00FF9010B1E0FEC39F4003026173EFB40C7D
:1060CB00179010ADE075F00CA424AAF582E5F0341E
:1060DB003FF583E5822E801A9010B1E0FF9010AD52
:1060EB00E075F010A4241EF582E5F03444F583E549
:1060FB00822FF582E43583F583E4939010B0F0E4BE
:10610B009010B2F09010AEE0C313FF9010B2E0FE0F
:10611B00C39F504B9010A9E0FDA3E09010ECCDF085
:10612B00A3EDF09010B0E030E026EEFF9010A6E06B
:10613B002FFF9010A5E03400FE9010B1E0FD901001
:10614B00A8E02DFD9010A7E034009010EC12003D5C
:10615B009010B0E0C313F09010B2E004F080A59063
:10616B0010B1E004F00260B79010B3E0FFA3E09031
:10617B0010ECCFF0A3EFF09010EFE024FFFB9010AA
:10618B00EEE034FFFA9010F1E024FFFE9010F0E007
:10619B0034FF9010BBF0A3CEF0E4FDFCFFFE0277C2
:0161AB00FCF7
:1070B50090115FEEF0A3EFF0A3ECF0A3EDF0A3EBDE
:1070C500F0901164E0FBA3E0FAA3E0F9124DB8FFDC
:1070D500D3947E400302717BEFC394205003027169
:1070E5007B9010EFE024FFFD9010EEE034FFFC9064
:1070F500115FE0FEA3E0FFD39DEE9C50799010F167
:10710500E024FFFB9010F0E034FFFA901161E0FC01
:10711500A3E0FDD39BEC9A505D9010EAE0FBA3E061
:107125009010ABCBF0A3EBF0901164E0FBA3E0FA79
:10713500A3E0F9124DB89010ADF0901163E09010F6
:10714500AEF0901167E09010AFF09010ECE0FAA36C
:10715500E0FB125FA3901163E0C313FF901160E0A1
:107165002FF090115FE03400F0901165E475F001A7
:07717500124E460270C62213
:0878960090117CEFF0A3EDF06E
:10789E00A31250190000000190117DE0FF14F0EFCB
:1078AE006020A3E0F8A3E0F9A3E0FAA3E0FB9011B7
:1078BE007CE0FFE4FCFDFE124E7290117E12500D24
:1078CE0080D690117EE0FCA3E0FDA3E0FEA3E0FFD6
:0178DE002287
:0E6A5400901133EEF0A3EFF0A3ECF0A3EDF001
:106A6200E490113FF090113DF090113BE0FF901146
:106A72003DE0FEC39F4003026B64C3EF9E14FD7FA3
:106A82000A127896A804A905AA06AB07901137E066
:106A9200FCA3E0FDA3E0FEA3E0FF124EFDE47B0AAF
:106AA200FAF9F8124EFD90113EEBF0A3E070579008
:106AB200113BE014FF90113DE0FEC39F5048A3E05C
:106AC200703E90113CE0F9C3138EF0A4FF90113494
:106AD200E02FFF901133E035F0FEC007901135E052
:106AE200FCA3E0FD9010ECE0FAA3E0FB9010EAE0DA
:106AF200FFA3E09010ABCFF0A3EFF0A37420804D82
:106B020090113F7401F090113CE0F9C313FFA3E030
:106B1200FEEF8EF0A4FF901134E02FFF901133E0CE
:106B220035F0FEC007901135E0FCA3E0FD9010ECBB
:106B3200E0FAA3E0FB9010EAE0FFA3E09010ABCFF5
:106B4200F0A3EFF090113EE024309010ADF0A3E9F5
:106B5200F0E4A3F0D007125FA390113DE004F0022D
:026B62006A6B5C
:016B6400220E
:106F0A00901117EEF0A3EFF090111BEAF0A3EBF04B
:086F1A00901119ECF0A3EDF059
:106F2200901117E0FAA3E0FFAE02C006C007240FDB
:106F3200FBE43AFAA3E0FEA3E0240FFFE43E901044
:106F4200BBF0A3EFF0D007D0061277FCE490112338
:106F5200F090111FE0FBA3E0FAA3E0F9124DB89004
:106F62001124F0901120E475F001124E46E4F990DC
:106F72001122E07019901124E030E70590111B8076
:106F82000390111DE0FEA3E0FF127A2F803F9011C3
:106F920024E030E738901123E0FD540175F008A495
:106FA200FF901118E02FFF901117E035F0FEE97AFB
:106FB200002FFFEA3EFEEDC313FD90111AE02DFDF6
:106FC200901119E03400FC90111B12003E90112424
:106FD200E025E0F009E964087095901123E004F0DF
:096FE200E0C394205003026F5338
:016FEB002283
:106D3E00901125EEF0A3EFF0901129EAF0A3EBF0FD
:086D4E00901127ECF0A3EDF019
:106D5600901125E0FAA3E0FFAE02C006C007241793
:106D6600FBE43AFAA3E0FEA3E02417FFE43E90100A
:106D7600BBF0A3EFF0D007D0061277FCE4901131F8
:106D8600F090112DE0FBA3E0FAA3E0F9124DB890C4
:106D96001132F090112EE475F001124E46E4F9908E
:106DA6001130E07019901132E030E705901129801A
:106DB6000390112BE0FEA3E0FF127A2F804590117D
:106DC60032E030E73E901131E0FD75F00384E5F0E6
:106DD60075F008A4FF901126E02FFF901125E035ED
:106DE600F0FEE97A002FFFEA3EFEED75F00384FD22
:106DF600901128E02DFD901127E03400FC90112918
:106E060012003E901132E025E0F009E96408708F27
:0F6E1600901131E004F0E0C394485003026D87FF
:016E2500224A
:10219A00000000C90192025B032403ED04B6057F27
:1021AA000647071007D908A2096A0A330AFB0BC3B4
:1021BA000C8B0D530E1B0EE30FAB1072113912016B
:1021CA0012C8138E1455151B15E216A8176D18336D
:1021DA0018F819BD1A821B471C0B1CCF1D931E56DB
:1021EA001F191FDC209F2161222322E523A62467D1
:1021FA00252825E826A82767282628E529A32A616D
:10220A002B1F2BDC2C982D552E112ECC2F873041CD
:10221A0030FB31B5326E332633DE3496354D360413
:10222A0036BA376F382438D8398C3A403AF23BA557
:10223A003C563D073DB83E683F173FC540734121B4
:10224A0041CE427A432543D0447A452445CD46754A
:10225A00471C47C34869490F49B44A584AFB4B9E31
:10226A004C3F4CE14D814E214EBF4F5E4FFB509784
:10227A00513351CE52695302539B543354CA556059
:10228A0055F5568A571D57B0584258D4596459F3D0
:10229A005A825B105B9D5C295CB45D3E5DC75E50F3
:1022AA005ED75F5E5FE3606860EC616F61F16271E7
:1022BA0062F2637163EF646C64E8656365DD6657B7
:1022CA0066CF674667BD683268A66919698C69FD79
:1022DA006A6D6ADC6B4A6BB86C246C8F6CF96D6240
:1022EA006DCA6E306E966EFB6F5F6FC1702370831E
:1022FA0070E27141719E71FA725572AF7307735F22
:10230A0073B5740B745F74B27504755575A575F45D
:10231A007641768E76D97723776C77B477FA7840D8
:10232A00788478C77909794A798A79C87A057A42A4
:10233A007A7D7AB67AEF7B267B5D7B927BC57BF8CA
:10234A007C297C5A7C897CB77CE37D0F7D397D6250
:10235A007D8A7DB07DD67DFA7E1D7E3F7E5F7E7F43
:10236A007E9D7EBA7ED57EF07F097F217F387F4DA4
:10237A007F627F757F877F977FA77FB57FC27FCE7A
:10238A007FD87FE17FE97FF07FF67FFA7FFD7FFFCD
:10239A007FFF7FFF7FFD7FFA7FF67FF07FE97FE196
:1023AA007FD87FCE7FC27FB57FA77F977F877F75D4
:1023BA007F627F4D7F387F217F097EF07ED57EBA8E
:1023CA007E9D7E7F7E5F7E3F7E1D7DFA7DD67DB0BF
:1023DA007D8A7D627D397D0F7CE37CB77C897C5A5E
:1023EA007C297BF87BC57B927B5D7B267AEF7AB66C
:1023FA007A7D7A427A0579C8798A794A790978C7D9
:10240A007884784077FA77B4776C772376D9768EA2
:10241A00764175F475A57555750474B2745F740BBD
:10242A0073B5735F730772AF725571FA719E71411A
:10243A0070E2708370236FC16F5F6EFB6E966E30B1
:10244A006DCA6D626CF96C8F6C246BB86B4A6ADC6E
:10245A006A6D69FD698C691968A6683267BD674645
:10246A0066CF665765DD656364E8646C63EF637124
:10247A0062F2627161F1616F60EC60685FE35F5EF6
:10248A005ED75E505DC75D3E5CB45C295B9D5B10A8
:10249A005A8259F3596458D4584257B0571D568A2C
:1024AA0055F5556054CA5433539B5302526951CE61
:1024BA00513350974FFB4F5E4EBF4E214D814CE139
:1024CA004C3F4B9E4AFB4A5849B4490F486947C397
:1024DA00471C467545CD4524447A43D04325427A64
:1024EA0041CE412140733FC53F173E683DB83D0785
:1024FA003C563BA53AF23A40398C38D83824376FE3
:10250A0036BA3604354D349633DE3326326E31B55B
:10251A0030FB30412F872ECC2E112D552C982BDCD9
:10252A002B1F2A6129A328E52826276726A825E83C
:10253A002528246723A622E522232161209F1FDC68
:10254A001F191E561D931CCF1C0B1B471A8219BD3F
:10255A0018F81833176D16A815E2151B1455138EA3
:10256A0012C81201113910720FAB0EE30E1B0D5374
:10257A000C8B0BC30AFB0A33096A08A207D9071096
:10258A000647057F04B603ED0324025B019200C9E6
:10259A000000FF37FE6EFDA5FCDCFC13FB4AFA8146
:1025AA00F9B9F8F0F827F75EF696F5CDF505F43D9A
:1025BA00F375F2ADF1E5F11DF055EF8EEEC7EDFFC3
:1025CA00ED38EC72EBABEAE5EA1EE958E893E7CDA1
:1025DA00E708E643E57EE4B9E3F5E331E26DE1AA13
:1025EA00E0E7E024DF61DE9FDDDDDD1BDC5ADB99FD
:1025FA00DAD8DA18D958D899D7DAD71BD65DD59F41
:10260A00D4E1D424D368D2ABD1EFD134D079CFBFBF
:10261A00CF05CE4BCD92CCDACC22CB6ACAB3C9FC59
:10262A00C946C891C7DCC728C674C5C0C50EC45BF5
:10263A00C3AAC2F9C248C198C0E9C03BBF8DBEDF78
:10264A00BE32BD86BCDBBC30BB86BADCBA33B98BC2
:10265A00B8E4B83DB797B6F1B64CB5A8B505B462BB
:10266A00B3C1B31FB27FB1DFB141B0A2B005AF6948
:10267A00AECDAE32AD97ACFEAC65ABCDAB36AAA053
:10268A00AA0BA976A8E3A850A7BEA72CA69CA60DBC
:10269A00A57EA4F0A463A3D7A34CA2C2A239A1B079
:1026AA00A129A0A2A01D9F989F149E919E0F9D8F65
:1026BA009D0E9C8F9C119B949B189A9D9A2399A975
:1026CA00993198BA984397CE975A96E79674960393
:1026DA009593952494B6944893DC93719307929EAC
:1026EA00923691D0916A910590A1903F8FDD8F7DAE
:1026FA008F1E8EBF8E628E068DAB8D518CF98CA18A
:10270A008C4B8BF58BA18B4E8AFC8AAB8A5B8A0C2D
:10271A0089BF8972892788DD8894884C880687C092
:10272A00877C873986F786B68676863885FB85BEA6
:10273A008583854A851184DA84A3846E843B840860
:10274A0083D783A683778349831D82F182C7829EBA
:10275A0082768250822A820681E381C181A18181A7
:10276A0081638146812B811080F780DF80C880B326
:10277A00809E808B807980698059804B803E803230
:10278A008028801F80178010800A800680038001BD
:10279A008001800180038006800A80108017801FD4
:1027AA0080288032803E804B805980698079808B76
:1027BA00809E80B380C880DF80F78110812B81469C
:1027CA008163818181A181C181E38206822A82504B
:1027DA008276829E82C782F1831D8349837783A68C
:1027EA0083D78408843B846E84A384DA8511854A5E
:1027FA00858385BE85FB8638867686B686F78739D1
:10280A00877C87C08806884C889488DD89278972E6
:10281A0089BF8A0C8A5B8AAB8AFC8B4E8BA18BF5AB
:10282A008C4B8CA18CF98D518DAB8E068E628EBF2E
:10283A008F1E8F7D8FDD903F90A19105916A91D077
:10284A009236929E9307937193DC944894B695249A
:10285A0095939603967496E7975A97CE984398BAA3
:10286A00993199A99A239A9D9B189B949C119C8FA4
:10287A009D0E9D8F9E0F9E919F149F98A01DA0A2B2
:10288A00A129A1B0A239A2C2A34CA3D7A463A4F0E0
:10289A00A57EA60DA69CA72CA7BEA850A8E3A9763C
:1028AA00AA0BAAA0AB36ABCDAC65ACFEAD97AE32E7
:1028BA00AECDAF69B005B0A2B141B1DFB27FB31FEF
:1028CA00B3C1B462B505B5A8B64CB6F1B797B83D71
:1028DA00B8E4B98BBA33BADCBB86BC30BCDBBD8684
:1028EA00BE32BEDFBF8DC03BC0E9C198C248C2F943
:1028FA00C3AAC45BC50EC5C0C674C728C7DCC891C5
:10290A00C946C9FCCAB3CB6ACC22CCDACD92CE4B2B
:10291A00CF05CFBFD079D134D1EFD2ABD368D4248D
:10292A00D4E1D59FD65DD71BD7DAD899D958DA180A
:10293A00DAD8DB99DC5ADD1BDDDDDE9FDF61E024BE
:10294A00E0E7E1AAE26DE331E3F5E4B9E57EE643C7
:10295A00E708E7CDE893E958EA1EEAE5EBABEC7243
:10296A00ED38EDFFEEC7EF8EF055F11DF1E5F2AD52
