:10005E006D4100666E28487A2900495028302E31AD
:10006E006D412900000000000000000000000000AB
:10007E000000000000000000000000000000000072
:10008E000000000000000000000000000000000062
:10009E000000000000000000000000000000000052
:1000AE000000000000000000003000000000000012
:1000BE0000000000000000C0000000000000000072
:1000CE0007000C07000000000000003C00000000CC
:1000DE00780000180600000007F000038070000092
:1000EE00000003800703800000007F80003C0000BA
:1000FE0000003C00001E0FC00007FFF80003C07890
:10010E000000000003C007038000001FC7C0001CD2
:10011E00000000001800001C03E00003C0F0000304
:10012E00C0780003803C0380070380001FF1C78066
:10013E00001C00000F000000003C01E0000380E006
:10014E00000180700001EFFE0381C7038E000E31A7
:10015E008700001C0000078001E00038004000030B
:10016E0080E0000180780000E60E0380E703FF00C8
:10017E0006318700001C0E0003801FF000380000BF
:10018E00000180C0000180EC0000660E0380777FC6
:10019E00800007318E00001DFF000103FF0000707C
:1001AE00001FC00181C0000180E6000007CCC380A3
:1001BE0027338000031FFC0031FF0FC0001FE0003B
:1001CE00007007FFE001BFE0000181C7000006ECF0
:1001DE00F3800703800003F80C003F9C0F800000A3
:1001EE00F00000E7FFC00001F80000018183C000AD
:1001FE0006EC73800F03BC00030E0000381C0F00CA
:10020E000000E60000E3F000000180000001F38131
:10021E00E01C06EC61807F1FFE00000E0C001C1817
:10022E000F00F001C78001E0000000000007F00F92
:10023E00F700F80E06EE6187E73E0000000FFF00A4
:10024E001C1FCE00780183C003F001F8000007FFE9
:10025E00F8FFC60E7C0F06EE618787E0000007FFF1
:10026E0080001CFFCE0038030FC003703FE0001F5C
:10027E00FFE000078CFF3F8666EE6180077000008E
:10028E001F9800001FFC0E00180FF9C00770060023
:10029E0007FFF800000799F00FC04EEE61800030A6
:1002AE007C000038E0000C181C00011FC0C00E704E
:1002BE00000001E038000007B0000000CEEE6180C3
:1002CE00001FFC00033FF8000C181C00031E00006A
:1002DE000C70007000007000000FE001C000CECE68
:1002EE0061807FFC000001E078000E1818000318F2
:1002FE000700187007F80000E1E0001FE001E001C0
:10030E008ECC6181FFC0300001C078000E1FF80056
:10031E000600870030703FE00001FFF0001FF07113
:10032E00E0038ECC638003C0780001FF78000FFCE1
:10033E003000061CE700007000000003F0F8003BE0
:10034E00A439C0030DCC638007F0F00001C070002B
:10035E00061800000E1EE7000070000000038070FB
:10036E000073873B800701F003800F19C00001C6A0
:10037E007000001800000E1CE700007001FE000067
:10038E0000700063873B800F01BC03801F0F0000CD
:10039E0001FF7000001800101C1CE70000707FFEAB
:1003AE00000000F000C3839B001E039E03803F07E6
:1003BE00800000C07000001800101C1CE7010070C7
:1003CE00701E000000E001838383000E070E038081
:1003DE00F303C00000C27000001C00183C1CE701B3
:1003EE000070301C000000E001030006000E0E0F2E
:1003FE000381E300F00000FF7000001C0038781845
:10040E00E7030070301C000000E00007000600004B
:10041E001C063387830C7C0000C07000001E007821
:10042E007838E70300703038000000E00007000F56
:10043E00FC0030001F9C03183FC000C070E0000F8E
:10044E00C3FC3870E3CF80E039FC000001E0000708
:10045E003FFFFE0060000F9003701FF000C7FFF813
:10046E000007FFF018E0E3FF80E03FFC000061C0F2
:10047E0000073FE000000000078007E00003FFFFD9
:10048E00F87C0000FF80018040FE0060100000003C
:10049E003FC00007000000000000070007800001B9
:1004AE00FF8000000000000000000000006000005F
:1004BE0000000F8000030000000000000200070093
:1004CE00000000000000000000000000000000001E
:1004DE000000000007000000000000000000000007
:1004EE0007000000000000000000000000000000F7
:1004FE0000000000000006000000000000000000E8
:10050E0000000000000000000000000000000000DD
:10051E0000000000000000000000000000000000CD
:10052E0000000000000000000000000000000000BD
:10053E0000000000000000000000000000000000AD
:10054E00000000000000000000000000000000009D
:10055E00000000000000000000000000000000008D
:10056E000000000000000000001C0000E000000081
:10057E00000000000000000000000000000000036A
:10058E0080000003C000003E0001F00000000000EB
:10059E00000000000000000F000000000001E0005D
:1005AE0038FFF000007C0000780000000000000022
:1005BE0000F000000007800000000001E0001F8135
:1005CE00F00000F001C03C00000006000000C07CFE
:1005DE0000000007000001C01E01C0001E01E00067
:1005EE0001E003C01E0000007F800003F03C00000D
:1005FE000007000000F7FF01C0000EFBC00001E085
:10060E0007C00E00000FFE0000FFF01C0000780770
:10061E00000000730701C0000FC3C00003C00FC06D
:10062E000F0000FFC0000001E00000003C070000CA
:10063E0000330701C0000E03800007801FC0078033
:10064E00000380000001C00000003C073E000003D4
:10065E006761C000061F800007803FC00380000353
:10066E00C0000001C00078000007FF80000377790A
:10067E00C00007FB000007007FC003C00003C000DE
:10068E000001801FFC0003FF0F8000037739C000BC
:10069E00030000000F0073C003C00003C00000037E
:1006AE009FFFC00003E71C000E037739C000000057
:1006BE007FC00E0063C001C00003C00000078FF0B2
:1006CE00000001C7180007837739C00007FFFFE05D
:1006DE000E0003C001C00003C00000FF80F0000048
:1006EE0001C7000007837739C03FFFE000000E000E
:1006FE0003C001C00783CF80006000E6000781C7FA
:10070E00000003B77739C01FC00380000E0003C07E
:10071E0001C003C3FF80006000E70003C1C70000F3
:10072E0000377739C000003FE0000E0003C001C063
:10073E0003C3FC0000E001C78003C1C7F0000067DF
:10074E007739C0007FE1F0000E0003C001C003C383
:10075E00C00000EC038F0001C1DFF80000E777391D
:10076E00C00038F1F0000E0003C001C001C38000CC
:10077E0000FF871E000001FCF00000C76731C000BB
:10078E0038FDE0000E0003C001C001C3800001FF70
:10079E008F3C000001C0F00001C7E631C0001FF918
:1007AE00C0000F0003C003C001C3800003C71FF8C1
:1007BE00000031B8E0000186E631C0001C71C000B7
:1007CE000F0003C003C001C3800001870E7000003C
:1007DE00619CE0000380F801C0001C7F80000700D0
:1007EE0003C0038001C38000000700E00000638E99
:1007FE00E0000781DE01C0000FFF0000078003C08C
:10080E00078001C38000000701C70000E387E000F6
:10081E000F01CF01C0000C60000003C003C0070031
:10082E0001C381FC00070383C001C303C00007039B
:10083E008F01C0000060000003C003C00F0001C3A1
:10084E00FFFE00070707E001C703E0000707078167
:10085E00C00000FFC00001E003C01E0003FFFFFE4A
:10086E00000E3FFDE007C707F800000E0399C00019
:10087E001FFC000000F003C03C03FFF00000000E60
:10088E003FC1E0078E0F7C000018000FC000006013
:10089E000000007803C07800F800000000DE3E0083
:1008AE00E0038C1E3F8000300007C0000060000097
:1008BE00003E0000F00000000000007C30006001EF
:1008CE0098F80FF000000003C000007FFE00001C2F
:1008DE000000E00000000000003C0000000033C0FB
:1008EE0007F80000000380003FFFFF00000000003B
:1008FE0000000000000000380000000000000000B2
:10090E00000000000003FF000000000000000000D7
:10091E0000000000000000000000000000000000C9
:10092E0000000000000000000000000000000000B9
:10093E0000000000000000000000000000000000A9
:10094E000000000000000000000000000000000099
:10095E000000000000000000000000000000000089
:10096E000000000000000000000000000000000079
:10097E000000000000000000000000000000000069
:10098E0000000000000000000000000000001C003D
:10099E000000000000000000000000000000000049
:1009AE0000700000E0000000000000000F000000DA
:1009BE00000000000000000700000007800000F0AB
:1009CE000001F00006000000000007000000001EFD
:1009DE00000000000003C00071FFE00001F0000005
:1009EE00780007800C00000007000000000F0000D8
:1009FE0000000003C0003F03E00003C01FC03C0026
:100A0E0007C01E00000003FC0000000E0000038063
:100A1E003C0380003C03C00007807FF01E0007806F
:100A2E001F000001FFE00000000E000001EFFE03BA
:100A3E0080001DF780000780FFF80E000F003F803A
:100A4E000003F1C00000F00E000000E60E0380006F
:100A5E001F8780000F00F8F80F000E00FC0000004A
:100A6E00E1C00000780E000000660E0380001C0737
:100A7E0000001E01E07C07801E03E0000000E1C0C4
:100A8E000000780E7C000006CEC380000C3F0000F4
:100A9E001E01E03C03801C07E00000006383F000B1
:100AAE00000FFF000006EEF380000FF600001C039F
:100ABE00C03C03C03C1CF000000003FFF80007FE22
:100ACE001F000006EE738000060000003C00003C94
:100ADE0003C03800F0000000FFE0000007CE380031
:100AEE001C06EE7380000000FF803800003C01C041
:100AFE007800F00000FFE0000000038E30000F06CB
:100B0E00EE7380000FFFFFC03800007801C07C003C
:100B1E00F00001F800F00000038E00000F06EE73E7
:100B2E00807FFFC000003800007801C0EE0070002A
:100B3E0000001FFC000F038E0000076EEE73803F57
:100B4E0080070000380000F801C1CC007038000F9B
:100B5E00F03C0007838E0000006EEE738000007F75
:100B6E00C000380000F001C38C007FFE0007003883
:100B7E000007838FE00000CEEE738000FFC3E0001D
:100B8E00380001E001C30C03FFFE00038F78000361
:100B9E0083BFF00001CEEE73800071E3E0003800F9
:100BAE0003E001C60FFFF0000003FE70000003F922
:100BBE00E000018ECE63800071FBC000380007C0DC
:100BCE0001C00DFC70000003807000000381E00086
:100BDE00038FCC6380003FF380003C00078003C08E
:100BEE000C006000000380E000006371C000030D84
:100BFE00CC63800038E380003C000F0003C00C0083
:100C0E0060000001BFEC0000C339C0000701F00313
:100C1E00800038FF00001C001E0003800C006000E6
:100C2E000001E0C7C000C71DC0000F03BC03800059
:100C3E001FFE00001E003E0007800C006000000139
:100C4E009C01E001C70FC0001E039E03800018C068
:100C5E0000000F007C0007001C006000001B0F004E
:100C6E00F003860780000E071E03800000C0000000
:100C7E000F00F8000F001C006000001D870000032D
:100C8E008E07C0000E0E0F03800001FF800007814B
:100C9E00F0001E001C007FE0003D8318000F8E0F39
:100CAE00F000001C073380003FF8000003C1FFFC7A
:100CBE003C001C0FFFF00039C00C000F1C1EF8008A
:100CCE000030001F800000C0000001E1FFFC780032
:100CDE001CFF80000038F00E0007183C7F000060FB
:100CEE00000F800000C0000000F00000F0001C00AB
:100CFE00000000387C0F800331F01FE00000000779
:100D0E00800000FFFC0000700000E0001C000000EE
:100D1E0000003FFF800067800FF00000000700001A
:100D2E007FFFFE000000000000000C00000000002D
:100D3E0007FE000000000000000000000007FE009B
:100D4E000000000000000000000000000000000095
:100D5E000000000000000000000000000000000085
:100D6E000000000000000000000000000000000075
:100D7E000000000000000000000000000000000065
:100D8E000000000000000000000000000000000055
:100D9E000000000000000000000000000000000045
:100DAE000000000000000000000000000000000035
:100DBE000000000000000000000000000000000025
:100DCE000000000000000000000000000000000015
:100DDE0000000000000000000000380000000000CD
:100DEE0000000000000000060000060000000000E9
:100DFE0000000000000000003C0000600000000049
:100E0E0000000000000780000780000000000000C6
:100E1E0000C0700000001C00007800000003000EEF
:100E2E0000000003C000038003800000070000F0F4
:100E3E00780007801C00003807800003800F000038
:100E4E000003800003801FE00000078000F07000A8
:100E5E0003E01DE0003807C00003C00F00000003D0
:100E6E0080000381FBC00000038000F0700001F0E1
:100E7E001FC0003803C0000380070001F07380001C
:100E8E00038783800000038001E071E000F3FC0023
:100E9E00003801C0000380060000F87B800003804C
:100EAE0007800000038001C073E00001FC000038E1
:100EBE00000000070007F800787B800003870F0012
:100ECE0000000300039C7F8000001FC00038001F3D
:100EDE000007383FF8003073FC000383DE00003F4C
:100EEE000700030E7C0000007F800038E0FF8007C3
:100EFE00F83E7000006FF80003F0FC0001FE0700E2
:100F0E00060F70180001FC00003FEF8F800FC386A4
:100F1E007F0000FF800007E078001FF0077E0E1FA5
:100F2E00701803801C7F00FCF80C000C1F87FC005F
:100F3E0000C380003F807E0000E007FF1FF770189F
:100F4E0007E01FFF87F8E018001C03FF7000018305
:100F5E008600FF80EF0000F3FF0F3F8770381FC33E
:100F6E00FE0007B9C7000038637660000003FF80FB
:100F7E000383C7C000E0EE0E1E003FF8FBDF8000CB
:100F8E00003FC7800033E707F000F83FF00003E7AB
:100F9E007BF000E00E0E00381FF003800380003C53
:100FAE000700007F867F8003F7F9C00003DC39FE5F
:100FBE0000E00E0E0FFC07800381FFE00038076093
:100FCE00006386360007E19DC0000380387F00E095
:100FDE001C1E061C70000381C1E00078067FF0C362
:100FEE000E07F000E01CC0000F803F8000E71C1CC5
:100FFE00061C78C00381C1C000F81FFFE183FC7F8F
:10100E00C000E03CC0001F80FF0000FC3C1C061C22
:10101E0070E00381CDC001FFFC70030FCFBE000056
:10102E00E039C0003B83F80000F8381C07FC71E083
:10103E000381FDC003BF0C70007F03867000E0715A
:10104E00C0C0F380380003E0781C061C77C0038D07
:10105E00C1C00F381CE00003038FF8006071C0C3DD
:10106E00E38039F01F80701C061C7F000399C1C0FD
:10107E003E381CE0000303FE000070E1C0C1C380D7
:10108E00FFFC7F00E038061C7C0003F1FFC03C38FB
:10109E000FC000031B06000071C1C1C003FFF800A2
:1010AE003C01E0380FFC700007E1F9C01C3803E08A
:1010BE0000030F0600007300FFC0038C3800000110
:1010CE00C0380FDC700307C1C1C0003803F8000739
:1010DE0067860000F0007FC00380380000038C7824
:1010EE000E1C70030781C1C001B8073E0007CFE692
:1010FE00001FFF8000001F803800000706700E1CC6
:10110E0070070701C1C001F81E1F00078C7E000F7B
:10111E0003FC00000F803800000E07F01C1C700747
:10112E00070381C000F0380F000F183F0000007F4A
:10113E00FFF807003800003C03E01C7C3C0F000366
:10114E008FC00070E007000F300FFC00000FFFE0B3
:10115E0007003800007003C01C3C1FFF000387C04F
:10116E000073800300000003FF800001FF80000079
:10117E00380000C00380183C0FFC000003C00000C4
:10118E00000000000000FC0000001C000000180021
:10119E0000000000001800000000018000000000A8
:1011AE000000000000000000000000001800000019
:1011BE000000000000000000000000000000000021
:1011CE000000000000000000000000000000000011
:1011DE0000000000000000001C00000000000000E5
:1011EE000000000000000001800000C00030380048
:1011FE00000000000000000000000003800000C09E
:10120E0000C0E0000000000000000000000000C070
:10121E0000000DE0000000000000000000000000D3
:10122E000003800001C000383800000000000000FC
:10123E00000000000003000000E000E0E0000000FD
:10124E00000000000000000000E03F803F80000032
:10125E00000000000000000000000703F80381FCFE
:10126E0000783800000000000000000000000007B9
:10127E000001E0E001E0E0000000000000000000DE
:10128E00000000C7E000F830000000000000000081
:10129E00078380000703700381B80070338000005D
:1012AE00000000000000000000073F80E0E001C0E9
:1012BE00CE000000000000000000000000F8E0007A
:1012CE003F3C000000000000000007838000030682
:1012DE00E001837000603FC00000000000000000CD
:1012EE000038003FF00060C00180FF0000000000E9
:1012FE000000000001C00EE0C00E377000000000BC
:10130E000000000007838000030EC001876000E725
:10131E00F8000000000000000000007807EE00005A
:10132E0001C0039FE000000000000000000003C0A9
:10133E000EC0DC0766C0000000000000000007833E
:10134E0080000303C00181E000C0700000000000B7
:10135E00000000000078000C00007D800301C0003A
:10136E00000000000000000003C006FFFE00FCC0ED
:10137E0000000000000000000783800003C3F0019E
:10138E00E1F801C066000000000000000000007CD3
:10139E00001C0007F18F07019800000000000000FC
:1013AE00000003E007EF0E039E780000000000002F
:1013BE0000000783800003763C01BB1E01C07F80C6
:1013CE00000000000000000000FC0019F81C037C67
:1013DE000701FE00000000000000000007E07DC3D2
:1013EE0066073BB800000000000000000783800085
:1013FE003B6FDF9DB7EFC3E3C700000000000000A6
:10140E00000000FC003F380673E00F8F1C00000048
:10141E0000000000000007E001F3761E7F987800C0
:10142E00000000000000078387FE3B79F7DDBCFB60
:10143E00E7E18701E00000000000000000FE0078F8
:10144E0038073E701F861C07800000000000000059
:10145E0007F00CFB660CFD807C0000000000000015
:10146E0007FF800E33FFC019FFE006C1FF01F00039
:10147E0000000000000001EE00F8380718701B078E
:10148E00FC07C0000000000000000F700DF36600A6
:10149E00CE00780000000000000007FF801C37E13E
:1014AE00801BF0C00CC18701E000000000000000AE
:1014BE0001CE01DFF80E637033061C0780000000BA
:1014CE00000000000E701DF766000C1F00000000EB
:1014DE0000000000078380383C07F81E03FC18C18B
:1014EE00BF00000000000000000001CE0198381C73
:1014FE0073602306FC0000000000000000000E7068
:10150E0019E76600FFFF00000000000000000783DF
:10151E008078380D801C06C000C1F7000000000066
:10152E000000000001CF0318383361E00307DC0030
:10153E0000000000000000000E7800C6E63FCC0060
:10154E000000000000000000078380F00001FF0093
:10155E0000FF80C18700000000000000000003FFB4
:10156E000E19F801E1E003061C0000000000000067
:10157E0000001FF801C0F6000C0000000000000083
:10158E000000078381E000FF80007FC000C1BF0024
:10159E00000000000000000003FF181FB801C0E0AB
:1015AE000306FC0000000000000000001FF803818D
:1015BE00DC000C003000000000000000078383C038
:1015CE000001800000C000C1E700C0000000000064
:1015DE000000038780183801E1F003079C03000028
:1015EE000000000000001C3C07038E000C00780079
:1015FE00000000000000078383800001800000C00F
:10160E0000C18701E000000000000000078780385D
:10161E00380373F803061C0780000000000000006A
:10162E003C3C0C070F000C007C000000000000008A
:10163E00078387000001800000C000C1BFF9F000E1
:10164E00000000000000078380383806063C0306C1
:10165E00FFE7C0000000000000003C1C380E070031
:10166E000C00780000000000000007838FFF0001CF
:10167E00800000C000FFF001E0000000000000004C
:10168E0007038030F80C0C1F03FFC007800000001A
:10169E0000000000381C003803000C0000000000A1
:1016AE0000000000000000000001800000C000CC1F
:1016BE00000000000000000000000703C030783872
:1016CE00000FC33000000000000000000000381EB4
:1016DE00000000000C0000000000000000000000F0
:1016EE0000000001800000C000C0000000000000EB
:1016FE0000000000000000003000000003000000A9
:10170E0000000000000000000000000000000C00BF
:10171E0000000000000000000000000000000000BB
:10172E0000000000000000000000000000000000AB
:10173E00000030000000000000000000000000006B
:10174E000000000000070000000000000000000084
:10175E00000000000000000000000000000000007B
:10176E000380000030380000000000000000000080
:10177E00000000000380000600000000000E0000C4
:10178E00000000000000000000000000000000014A
:10179E00C00F0038380000000000000000000000FC
:1017AE00000001E3800007800060000006F00000EA
:1017BE00000000000000000000000000000001C05A
:1017CE007E007838000000000000000000000000DD
:1017DE000000C30000038000701FC01FC000000087
:1017EE00000000000000003C1C0000000001C0C012
:1017FE0000703380000000000000000000000000B8
:10180E0000DFE00703000063F0007C18000000001A
:10181E000000000000003C1C0000000001C00000A1
:10182E00603FC0000000000000000000000700073D
:10183E00F300078300007C70001F9E000000000074
:10184E0000000000003C1C0000000001C01E00E76C
:10185E00F800000000000000000000000F0000C3B0
:10186E000003837C077060071BB8000000000000B7
:10187E00000000003C1C0000000001FFF700C070DB
:10188E0000000000000000000000000F0000FF003C
:10189E000007DE07606E03B360000000000000006A
:1018AE000000003C1C000000000F9D8601C0660079
:1018BE00000000000000000000000F8000C30000C8
:1018CE007F38037FFF007E600000000000000000F4
:1018DE0000003C1C000000000D998E01C07F8000AE
:1018EE000000000000000000001F8000DB002073DD
:1018FE000003F78701CF3C0000000000000000004D
:10190E00003C1C000000001D99FC03E3C700000012
:10191E0000000000000000001F8000FB0018730094
:10192E003EE1B3039DDC000000000000000000005B
:10193E003C1C3FF000001D98C027E18701E000002D
:10194E00000000000000001FC000C3001C73000058
:10195E00F9BB0F3FCC3C0000000000000000003F30
:10196E00FC007000001DB80786C1FF01F0000000EA
:10197E000000000000003DC000CFF81C73E0067DA3
:10198E00B3067EC03E0000000000000000003FFCD9
:10199E0000E000001DB87DCCC18701E00000000012
:1019AE00000000000039C01FFB00007EE006F9B306
:1019BE000067003C0000000000000000003C1C011D
:1019CE00C000001D8FF1D8C1BF0000000000000054
:1019DE000000000039C00DC1800370E00EFBB300A3
:1019EE00060F800000000000000000003C1C03C039
:1019FE0000001D8731C0C1F700000000000000008C
:101A0E0000000039E001DDC0067CE00CF3B3007F7E
:101A1E00FF800000000000000000003C1C0780005A
:101A2E00000187FDC0C1870000000000000000001B
:101A3E0000007FE0039CE00666C00063731FE600B3
:101A4E00000000000000000000003C1C0F00000021
:101A5E000187F1C0C1BF00000000000000000000BF
:101A6E00007FE0071B780C63C000E07B00060000DF
:101A7E000000000000000000003C1C1E00000001E1
:101A8E008731C0C1E700C000000000000000000068
:101A9E0070F00FFF3E2CE1C001C0EE0006001800F2
:101AAE0000000000000000003C1C1C00000001872C
:101ABE003FC0C18701E0000000000000000000F000
:101ACE00F01C181F9CC3F00381C70006003C0000E9
:101ADE00000000000000003C1C380000000183FBE9
:101AEE0080C1BFF9F0000000000000000000F0709F
:101AFE003018001DC77C0603878006003E000000DC
:101B0E000000000000003C1C7FF8000001830380F1
:101B1E00FFF001E0000000000000000000E0702077
:101B2E0018E0019C1F9C07038006003C000000008B
:101B3E00000000000000000000000001800180CCC9
:101B4E00000000000000000000000000E07801FF2F
:101B5E00F803300F801C018006000000000000001A
:101B6E000000000000000000000000000000C000A7
:101B7E000000000000000000000000000000070050
:101B8E000000000000000006000000000000000041
:101B9E000000000000000000000000000000000037
:101BAE0000000000000000000000000000038000A4
:101BBE000000000000000000000000000000000017
:101BCE00000000000000000003800000303800001C
:101BDE000000000000000000000000180380000656
:101BEE0000000000000E00000000000000000000D9
:101BFE000000000000000001C00F00383800000097
:101C0E00000000000000000000001EC398000780C6
:101C1E000060000006F00000000000000000000060
:101C2E0000000000000001C07E00783800000000B7
:101C3E000000000000000000000EE33C00038000E6
:101C4E00701FC01FC0000000000000000000003C1C
:101C5E001C0000000001C0C00070338000000000B6
:101C6E00000000000000000000E3F0070300006326
:101C7E00F0007C18000000000000000000003C1C7A
:101C8E000000000001C00000603FC0000000000026
:101C9E0000000000000700007F80078300007C70BA
:101CAE00001F9E000000000000000000003C1C0011
:101CBE0000000001C01E00E7F80000000000000058
:101CCE00000000000F0000630003837C07706007B4
:101CDE001BB8000000000000000000003C1C0000CB
:101CEE00000001FFF700C0700000000000000000BF
:101CFE000000000F0000638C0007DE07606E03B368
:101D0E0060000000000000000000003C1C0000000D
:101D1E00000F9D8601C0660000000000000000005C
:101D2E0000000F803C7B8E007F38037FFF007E60BB
:101D3E00000000000000000000003C1C000000003D
:101D4E000D998E01C07F8000000000000000000091
:101D5E00001F80FCF1FE00730003F78701CF3C00EB
:101D6E000000000000000000003C1C000000001DF0
:101D7E0099FC03E3C7000000000000000000000013
:101D8E001F809CEEFC3873003EE1B3039DDC000027
:101D9E0000000000000000003C1C3FF000001D98F9
:101DAE00C027E18701E00000000000000000001FD6
:101DBE00C0180E001C730000F9BB0F3FCC3C000096
:101DCE00000000000000003FFC007000001DB8077E
:101DDE0086C1FF01F00000000000000000003DC0C1
:101DEE00180C001C73E0067DB3067EC03E0000009A
:101DFE000000000000003FFC00E000001DB87DCC9C
:101E0E00C18701E000000000000000000039C0188A
:101E1E001BF0007EE006F9B30067003C00000000F6
:101E2E0000000000003C1C01C000001D8FF1D8C155
:101E3E00BF000000000000000000000039C0187E46
:101E4E00700370E00EFBB300060F80000000000070
:101E5E00000000003C1C03C000001D8731C0C1F70C
:101E6E00000000000000000000000039E019B07012
:101E7E00067CE00CF3B3007FFF8000000000000042
:101E8E000000003C1C078000000187FDC0C18700D8
:101E9E00000000000000000000007FE01F37700609
:101EAE0066C00063731FE600000000000000000023
:101EBE0000003C1C0F0000000187F1C0C1BF0000F4
:101ECE000000000000000000007FE03C3E700C634C
:101EDE00C000E07B000600000000000000000000D3
:101EEE00003C1C1E000000018731C0C1E700C0008D
:101EFE00000000000000000070F03C30700CE1C0EB
:101F0E0001C0EE00060018000000000000000000F6
:101F1E003C1C1C00000001873FC0C18701E000008F
:101F2E0000000000000000F0F03830703CC3F003F9
:101F3E0081C70006003C0000000000000000003CCD
:101F4E001C380000000183FB80C1BFF9F0000000C7
:101F5E00000000000000F070003FE01DC77C06038B
:101F6E00878006003E0000000000000000003C1CC0
:101F7E007FF8000001830380FFF001E00000000005
:101F8E000000000000E0700030E0019C1F9C070381
:101F9E008006003C00000000000000000000000071
:101FAE0000000001800180CC000000000000000055
:101FBE0000000000E07800006003300F801C0180FC
:101FCE0006000000000000000000000000000000FD
:101FDE00000000000000C000000000000000000033
:101FEE0000000000000000000000000000000006DD
:101FFE0000000000000000000000000000000000D3
:10200E0000000000000000000000000000000000C2
:10201E00000000000000000000000000F019830C1A
:10202E0030C60660660660660660660660630C3043
:10203E00C1980F000000000000000000000000002A
:10204E00200603E0060060060060060060060060E1
:10205E000600600600603FC00000000000000000A7
:10206E0000000001F021840C60C60C00C018018035
:10207E00300400801042044047FC7FC00000000086
:10208E000000000000000001E02306186181180125
:10209E0080300E001800800C60C60C60C2181F0045
:1020AE0000000000000000000000008018038038CF
:1020BE000580980981182182184187FE0180180138
:1020CE00801807E000000000000000000000000380
:1020DE00FC3FC2002002002002F031820C00C00C36
:1020EE0060C60C4182181F000000000000000000B6
:1020FE00000000007818C30C30020060067868C734
:10210E000660660660620630418C0F00000000001B
:10211E000000000000000001FE3FE30420820800E2
:10212E0080100100200200200600600600600600FC
:10213E00000000000000000000000001F830C6069C
:10214E006066067043CC0F033820C60660660660D4
:10215E00630C0F8000000000000000000000000073
:10216E00F030830C60460660660660E3161E60065D
:10217E0000C00C3083181E0000000000000000009C
:10218E000000000000000000000000000000000041
:10219E00000000000000003803803800000000003E
:0B8A23004110000042101D0000C18245
:10818300E49010A3F0A3F09010A3E0FCA3E0FDECB7
:108193001260DB7BCF7A64799D7843125F30E4FB16
:1081A300FAF97844126039127748E4FBFA79807857
:1081B30044125F30126114AD07AC069010A4E025A1
:1081C300E0FB9010A3E033FA74AE2BF58274313ADE
:1081D300F58374019325E0FFE49333FE74002FF5D8
:1081E3008274003EF583ECF0A3EDF074AE2BF582C0
:1081F30074313AF58374019325E0FFE49333FE74FD
:10820300002FF58274083EF583E4F0A3F09010A4E8
:10821300E004F070069010A3E004F0C39010A3E014
:0982230064809484500302818AF6
:01822C00222F
:1084F900E4FBFA7C017D00AF03AE021263877C00C6
:108509007D02126387ED4C6029EB25E0FFEA33FE1B
:1085190074AE2FF58274313EF58374019325E0FF23
:10852900E49333FE74002FF58274003EF58374FEE4
:108539008027EB25E0FFEA33FE74AE2FF582743114
:108549003EF58374019325E0FFE49333FE74002F15
:10855900F58274003EF5837402F0A3E4F00BBB00CE
:0A856900010AEB7003EA6404708954
:0185730022E5
:10871000E4FDFCC3EC64809482ED500E25E0FFEC98
:1087200033FEE42FFBEE34FE800D25E0FFEC33FE3C
:10873000C3E49FFB74069EFA74AE2FF58274313E3B
:10874000F58374019325E0FFE49333FE74002FF565
:108750008274003EF583EAF0A3EBF00DBD00010C3E
:08876000ED7003EC640470AB42
:0187680022EE
:1039AE001281831265F1E49010A1F0A3F09010A1A2
:1039BE00E0FEA3E0FFC3EE648094824003023ABCB3
:1039CE00EF25E0FFEE33FE74002FF58274083EF50E
:1039DE0083E0FEA3E0FFEE3395E0FDFCA804A9050D
:1039EE00AA06AB079010A2E025E0FF9010A1E033ED
:1039FE00FE74002FF58274083EF583E0FEA3E0FF0F
:103A0E00EE3395E0FDFC1263E9C004C005C006C0AC
:103A1E00079010A2E025E0FF9010A1E033FE7400A5
:103A2E002FF58274003EF583E0FEA3E0FFEE3395A2
:103A3E00E0FDFCA804A905AA06AB079010A2E0259C
:103A4E00E0FF9010A1E033FE74002FF58274003E6B
:103A5E00F583E0FEA3E0FFEE3395E0FDFC1263E993
:103A6E00D003D002D001D000EF2BFFEE3AFEED399D
:103A7E00FDEC38FC1260D61280DB126114AD07AC7F
:103A8E00069010A2E025E0FF9010A1E033FE740036
:103A9E002FF58274003EF583ECF0A3EDF09010A2AA
:103AAE00E004F070069010A1E004F00239BB12861B
:103ABE00477FA4120003E49010A1F0A3F09010A190
:103ACE00E0FEA3E0FFC39408EE648094805019AD2D
:103ADE0007ED2480FF12000E9010A2E004F070DDBE
:103AEE009010A1E004F080D512710774FFFFFE1252
:103AFE00822D1282D7200503024BE8C205901000DA
:103B0E00E0640160030244AA90102AE0FEA3E0FBE9
:103B1E00AA06E4F9F8A3E0FCA3E0FDA3E0FEA3E00F
:103B2E00FF12884CAC00AD01AE02AF03E47B207AED
:103B3E0003F9F81263E9C006C00790102AE0FEA34D
:103B4E00E0FBAA06E4F9F8D007D00612884CC004B0
:103B5E00C005C006C00790102AE0FEA3E0FBAA062F
:103B6E00E4F9F8A3E0FCA3E0FDA3E0FEA3E0FF125E
:103B7E00884CE47B207A03F9F81263E9D003D00273
:103B8E00D001D000EF2BFFEE3AFEED39FDEC38FC04
:103B9E001260D61280DB7B007AC079307844125FD7
:103BAE0030E4FBFAF97844126039126114901094E3
:103BBE0012658790102AE0FEA3E0FBAA06E4F9F84E
:103BCE00A3E0FCA3E0FDA3E0FEA3E0FF12884CAC53
:103BDE0000AD01AE02AF03E47B207A03F9F8126365
:103BEE00E9C006C00790102AE0FEA3E0FBAA06E497
:103BFE00F9F8D007D00612884CC004C005C006C024
:103C0E000790102AE0FEA3E0FBAA06E4F9F8A3E071
:103C1E00FCA3E0FDA3E0FEA3E0FF12884CE47B20B2
:103C2E007A03F9F81263E9D003D002D001D000EF85
:103C3E002BFFEE3AFEED39FDEC38FC1260D6128009
:103C4E00DBE4FBFA797A7843125F30E4FBFAF97819
:103C5E004412603912611490103012658790101B57
:103C6E00E0FEA3E0FFE4FCFDFB7A537907F8126354
:103C7E00E9C006C00790102AE0FEA3E0FBAA06E406
:103C8E00F9F8D007D00612884C9010261265877F5F
:103C9E00A07E867D017C00901026E0F8A3E0F9A3BB
:103CAE00E0FAA3E0FBC3126514400A9010261265D9
:103CBE00930001869F9010A9E4F0A37467F0E47B53
:103CCE00107A27F9F8901026E0FCA3E0FDA3E0FEA1
:103CDE00A3E0FF12884CE47B24FAF9F81263E9742E
:103CEE00222FF974203EFA9010AB74FFF0A3EAF085
:103CFE00A3E9F0E4A3F07B4BFA7D50FC7F40FE126B
:103D0E007AC09010A9E4F0A37467F0E47B107A27D0
:103D1E00F9F8901026E0FCA3E0FDA3E0FEA3E0FF7F
:103D2E0012884CAC00AD01AE02AF03E47BE87A031F
:103D3E00F9F812884CE47B24FAF9F81263E974223C
:103D4E002FF974203EFA9010AB74FFF0A3EAF0A3A3
:103D5E00E9F0E4A3F07B57FA7D50FC7F4CFE127A1B
:103D6E00C09010A9E4F0A37467F0E47BE87A03F93D
:103D7E00F8901026E0FCA3E0FDA3E0FEA3E0FF1206
:103D8E00884CAC00AD01AE02AF03E47B64FAF9F8E7
:103D9E0012884CE47B24FAF9F81263E974222FF9A5
:103DAE0074203EFA9010AB74FFF0A3EAF0A3E9F092
:103DBE00E4A3F07B63FA7D50FC7F58FE127AC0902C
:103DCE0010A9E4F0A37467F0A374FFF0A37421F0BC
:103DDE00A3748AF0E4A3F07B6FFA7D50FC7F64FE3F
:103DEE00127AC09010A9E4F0A37467F0E47B64FA31
:103DFE00F9F8901026E0FCA3E0FDA3E0FEA3E0FF9F
:103E0E0012884CAC00AD01AE02AF03E47B0AFAF9A6
:103E1E00F812884CE47B24FAF9F81263E974222F25
:103E2E00F974203EFA9010AB74FFF0A3EAF0A3E908
:103E3E00F0E4A3F07B7BFA7D50FC7F70FE127AC01B
:103E4E00901030E0FCA3E0FDA3E0FEA3E0FF901095
:103E5E009D126587E47B06FAF9F890109DE0FCA3AD
:103E6E00E0FDA3E0FEA3E0FF12884C9010991265CE
:103E7E00879010A9E420020302406AF0A3748FF029
:103E8E007BA07A8679017800901099E0FCA3E0FD82
:103E9E00A3E0FEA3E0FF12884CAC00AD01AE02AF72
:103EAE0003E47B107A27F9F812884CE47B24FAF9A4
:103EBE00F81263E974222FF974203EFA9010AB7455
:103ECE00FFF0A3EAF0A3E9F0E4A3F07BC7FA7D7854
:103EDE00FC7FBCFE127AC09010A9E4F0A3748FF0A0
:103EEE00E47B107A27F9F8901099E0FCA3E0FDA38B
:103EFE00E0FEA3E0FF12884CAC00AD01AE02AF03B2
:103F0E00E47BE87A03F9F812884CE47B24FAF9F89A
:103F1E001263E974222FF974203EFA9010AB74FFED
:103F2E00F0A3EAF0A3E9F0E4A3F07BC7FA7D78FCF6
:103F3E007FBCFE127AC09010A9E4F0A3748FF0E457
:103F4E007BE87A03F9F8901099E0FCA3E0FDA3E07A
:103F5E00FEA3E0FF12884CAC00AD01AE02AF03E44D
:103F6E007B64FAF9F812884CE47B24FAF9F81263B0
:103F7E00E974222FF974203EFA9010AB74FFF0A36F
:103F8E00EAF0A3E9F0E4A3F07BD3FA7D78FC7FC8D6
:103F9E00FE127AC09010A9E4F0A3748FF0E47B6453
:103FAE00FAF9F8901099E0FCA3E0FDA3E0FEA3E07F
:103FBE00FF12884CAC00AD01AE02AF03E47B0AFAEF
:103FCE00F9F812884CE47B24FAF9F81263E97422AA
:103FDE002FF974203EFA9010AB74FFF0A3EAF0A311
:103FEE00E9F0E4A3F07BDFFA7D78FC7FD4FE127A51
:103FFE00C09010A9E4F0A3748FF0A374FFF0A37423
:10400E0021F0A3748AF0E4A3F07BEBFA7D78FC7FB9
:10401E00E0FE127AC09010A9E4F0A3748FF0E47B56
:10402E000AFAF9F8901099E0FCA3E0FDA3E0FEA3D4
:10403E00E0FF12884CAC00AD01AE02AF03E47B246E
:10404E00FAF9F81263E974222FF974203EFA9010EF
:10405E00AB74FFF0A3EAF0A3E9024248F0A3748F19
:10406E00F07BA07A8679017800901099E0FCA3E0AD
:10407E00FDA3E0FEA3E0FF12884CAC00AD01AE0242
:10408E00AF03E47B107A27F9F812884CE47B24FA0C
:10409E00F9F81263E974222FF974203EFA9010ABEE
:1040AE0074FFF0A3EAF0A3E9F0E4A3F07BC7FA7D76
:1040BE0078FC7FBCFE127AC09010A9E4F0A3748F36
:1040CE00F0E47B107A27F9F8901099E0FCA3E0FD5C
:1040DE00A3E0FEA3E0FF12884CAC00AD01AE02AF30
:1040EE0003E47BE87A03F9F812884CE47B24FAF9AE
:1040FE00F81263E974222FF974203EFA9010AB7413
:10410E00FFF0A3EAF0A3E9F0E4A3F07BC7FA7D7811
:10411E00FC7FBCFE127AC09010A9E4F0A3748FF05D
:10412E00E47BE87A03F9F8901099E0FCA3E0FDA394
:10413E00E0FEA3E0FF12884CAC00AD01AE02AF036F
:10414E00E47B64FAF9F812884CE47B24FAF9F8124D
:10415E0063E974222FF974203EFA9010AB74FFF0CD
:10416E00A3EAF0A3E9F0E4A3F07BD3FA7D78FC7F19
:10417E00C8FE127AC09010A9E4F0A3748FF0E47B0D
:10418E0064FAF9F8901099E0FCA3E0FDA3E0FEA319
:10419E00E0FF12884CAC00AD01AE02AF03E47B0A27
:1041AE00FAF9F812884CE47B24FAF9F81263E974F0
:1041BE00222FF974203EFA9010AB74FFF0A3EAF0B0
:1041CE00A3E9F0E4A3F07BDFFA7D78FC7FD4FE1246
:1041DE007AC09010A9E4F0A3748FF0E47B0AFAF988
:1041EE00F8901099E0FCA3E0FDA3E0FEA3E0FF121F
:1041FE00884CAC00AD01AE02AF03E47B24FAF9F8B3
:10420E001263E974222FF974203EFA9010AB74FFFA
:10421E00F0A3EAF0A3E9F0E4A3F07BEBFA7D78FCDF
:10422E007FE0FE127AC09010A9E4F0A3748FF0A381
:10423E0074FFF0A37421F0A3748AF0E4A3F07BF76B
:10424E00FA7D78FC7FECFE127AC09010A874FFF015
:10425E00A37400F0A3745EF0E4A3F07B107D78FCF1
:10426E007F1D7E01128010E47F867E05FDFC90107E
:10427E0099E0F8A3E0F9A3E0FAA3E0FB1263E9E406
:10428E007BE87A03F9F812884CE47B04FAF9F81209
:10429E00884C90109D1265879010A9E4F0A3746766
:1042AE00F0E47B107A27F9F890109DE0FCA3E0FD76
:1042BE00A3E0FEA3E0FF12884CAC00AD01AE02AF4E
:1042CE0003E47BE87A03F9F812884CE47B24FAF9CC
:1042DE00F81263E974222FF974203EFA9010AB7431
:1042EE00FFF0A3EAF0A3E9F0E4A3F07B967A017D58
:1042FE0050FC7F8B7E01127AC09010A9E4F0A3745B
:10430E0067F0A374FFF0A37421F0A3748AF0E4A302
:10431E00F07BA27A017D50FC7F977E01127AC090CD
:10432E0010A9E4F0A37467F0E47BE87A03F9F8903F
:10433E00109DE0FCA3E0FDA3E0FEA3E0FF12884C7D
:10434E00AC00AD01AE02AF03E47B64FAF9F812885B
:10435E004CE47B24FAF9F81263E974222FF97420E5
:10436E003EFA9010AB74FFF0A3EAF0A3E9F0E4A3D9
:10437E00F07BAE7A017D50FC7FA37E01127AC09055
:10438E0010A9E4F0A37467F0E47B64FAF9F89010D6
:10439E009DE0FCA3E0FDA3E0FEA3E0FF12884CAC81
:1043AE0000AD01AE02AF03E47B0AFAF9F812884CB5
:1043BE00E47B24FAF9F81263E974222FF974203E93
:1043CE00FA9010AB74FFF0A3EAF0A3E9F0E4A3F0C7
:1043DE007BBA7A017D50FC7FAF7E01127AC09010BD
:1043EE00A9E4F0A37467F0E47B0AFAF9F890109D43
:1043FE00E0FCA3E0FDA3E0FEA3E0FF12884CAC00BE
:10440E00AD01AE02AF03E47B24FAF9F81263E9744E
:10441E00222FF974203EFA9010AB74FFF0A3EAF04D
:10442E00A3E9F0E4A3F07BC67A017D50FC7FBB7E4E
:10443E0001127AC074FF9010B6300208F0A3F0A3F8
:10444E0074318006F0A3F0A37430F0A37410F0E47E
:10445E00A3F0FBFA7D28FC7F32FE126EFE20021CBA
:10446E00E47F64FEFDFC901099E0F8A3E0F9A3E070
:10447E00FAA3E0FBC31265145002D20230021DE40F
:10448E007F207E03FDFC901099E0F8A3E0F9A3E0F5
:10449E00FAA3E0FBD31265144002C202901000E0B2
:1044AE00640260030249321265F1E49010A1F0A398
:1044BE00F09010A1E0FEA3E0FFC39491EE6480940F
:1044CE008140030245C2EF25E0FFEE33FE74002F5C
:1044DE00F58274083EF583E0FEA3E0FFEE3395E02F
:1044EE00FDFCA804A905AA06AB079010A2E025E0E2
:1044FE00FF9010A1E033FE74002FF58274083EF594
:10450E0083E0FEA3E0FFEE3395E0FDFC1263E9C00D
:10451E0004C005C006C0079010A2E025E0FF901071
:10452E00A1E033FE74002FF58274003EF583E0FEA9
:10453E00A3E0FFEE3395E0FDFCA804A905AA06ABA7
:10454E00079010A2E025E0FF9010A1E033FE74006A
:10455E002FF58274003EF583E0FEA3E0FFEE339567
:10456E00E0FDFC1263E9D003D002D001D000EF2BA6
:10457E00FFEE3AFEED39FDEC38FC1260D61280DB10
:10458E00126114AD07AC069010A2E025E0FF90106A
:10459E00A1E033FE74002FF58274003EF583ECF03B
:1045AE00A3EDF09010A2E004F070069010A1E004CC
:1045BE00F00244BFE4901017F0A3F090103DF0A36A
:1045CE00F09010A1F0A304F09010A1E0FEA3E0FF84
:1045DE00C39491EE64809481504CEF25E0FFEE334E
:1045EE00FE74002FF58274003EF583E0FEA3E0FF1B
:1045FE00901017E0FCA3E0FDD3EF9DEE9C401790CA
:10460E0010A1E0FDA3E090103DCDF0A3EDF09010D1
:10461E0017EEF0A3EFF09010A2E004F070AA901045
:10462E00A1E004F080A290103DE0FEA3E0FF7C002C
:10463E007D0512632090103DEEF0A3EFF090101761
:10464E00E0FEA3E0FF7C027D711265C4E47B80FA7C
:10465E00F9F8126474901017EEF0A3EFF090103D7D
:10466E00E0FEA3E0FF7C037DE81263327C007D2434
:10467E0012632074222FF974203EFA9010AB74FF4F
:10468E00F0A3EAF0A3E9F09010A9E4F0A37467F0A8
:10469E00E49010AEF07B7BFA7D507F70FE127AC0F4
:1046AE0090103DE0FEA3E0FF7C037DE81263327EB6
:1046BE00007F64CFCDCFCECCCE1263327C007D2472
:1046CE0012632074222FF974203EFA9010AB74FFFF
:1046DE00F0A3EAF0A3E9F09010A9E4F0A37467F058
:1046EE00E49010AEF07B87FA7D507F7CFE127AC08C
:1046FE0090103DE0FEA3E0FF7C007D641263327EED
:10470E00007F0ACFCDCFCECCCE1263327C007D247B
:10471E0012632074222FF974203EFA9010AB74FFAE
:10472E00F0A3EAF0A3E9F09010A9E4F0A37467F007
:10473E00E49010AEF07B93FA7D507F88FE127AC023
:10474E009010A9E4F0A37467F0A374FFF0A3742192
:10475E00F0A3748AF0E4A3F07B9FFA7D50FC7F9463
:10476E00FE127AC090103DE0FEA3E0FF7C007D0AB1
:10477E001263327E007F2412632074222FF974207C
:10478E003EFA9010AB74FFF0A3EAF0A3E9F090109C
:10479E00A9E4F0A37467F0E49010AEF07BABFA7D61
:1047AE0050FC7FA0FE127AC0901017E0FEA3E0FF2F
:1047BE00E4FCFD7B18FAF9F812884CE47B867A0546
:1047CE00F9F81263E9E47BE87A03F9F812884C9061
:1047DE001037EEF0A3EFF07C037DE81263327C001D
:1047EE007D2412632074222FF974203EFA9010ABB0
:1047FE0074FFF0A3EAF0A3E9F09010A9E4F0A3741B
:10480E0067F0E49010AEF07B337A017D507F287E06
:10481E0001127AC09010A9E4F0A37467F0A374FF9C
:10482E00F0A37421F0A3748AF0E4A3F07B3F7A0125
:10483E007D50FC7F347E01127AC0901037E0FEA3CB
:10484E00E0FF7C037DE81263327E007F64CFCDCF24
:10485E00CECCCE1263327C007D2412632074222FC4
:10486E00F974203EFA9010AB74FFF0A3EAF0A3E9BE
:10487E00F09010A9E4F0A37467F0E49010AEF07B12
:10488E004B7A017D507F407E01127AC0901037E046
:10489E00FEA3E0FF7C007D641263327E007F0ACFB0
:1048AE00CDCFCECCCE1263327C007D241263207429
:1048BE00222FF974203EFA9010AB74FFF0A3EAF0A9
:1048CE00A3E9F09010A9E4F0A37467F0E49010AEA1
:1048DE00F07B577A017D507F4C7E01127AC090108A
:1048EE0037E0FEA3E0FF7C007D0A1263327E007F7C
:1048FE002412632074222FF974203EFA9010AB74A8
:10490E00FFF0A3EAF0A3E9F09010A9E4F0A3746716
:10491E00F0E49010AEF07B637A017D50FC7F587E00
:10492E0001127AC0901000E064036003024BE8129B
:10493E0065F19010A1E4F0A304F09010A1E0FEA3A5
:10494E00E0FFC39491EE648094814003024A4BEFE2
:10495E0025E0FFEE33FE74002FF58274083EF583DA
:10496E00E0FEA3E0FFEE3395E0FDFCA804A905AA46
:10497E0006AB079010A2E025E0FF9010A1E033FEF9
:10498E0074002FF58274083EF583E0FEA3E0FFEE7F
:10499E003395E0FDFC1263E9C004C005C006C007F4
:1049AE009010A2E025E0FF9010A1E033FE74002FDE
:1049BE00F58274003EF583E0FEA3E0FFEE3395E052
:1049CE00FDFCA804A905AA06AB079010A2E025E0FD
:1049DE00FF9010A1E033FE74002FF58274003EF5B7
:1049EE0083E0FEA3E0FFEE3395E0FDFC1263E9D019
:1049FE0003D002D001D000EF2BFFEE3AFEED39FDD1
:104A0E00EC38FC1260D61280DB126114AD07AC06D6
:104A1E009010A2E025E0FF9010A1E033FE74002F6D
:104A2E00F58274003EF583ECF0A3EDF09010A2E059
:104A3E0004F070069010A1E004F00249489010A80E
:104A4E0074FFF0A37400F0A37461F0E4A3F07B1084
:104A5E007D6CFC7F0CFE1280109010A874FFF0A3EA
:104A6E007400F0A37468F0E4A3F07B107D7CFC7FEF
:104A7E000CFE128010901039E4F0A3743CF0A3E405
:104A8E00F0A3746CF0E49010A1F0A3F09010A1E0EC
:104A9E00FEA3E0FFD39490EE648094814003024B1A
:104AAE00E87C007D051263207D02126387AA06ABA7
:104ABE000790103DE0FEA3E0FF7C007D0A126332FA
:104ACE00AD07AC06AF03AE02126332D3ED9401EC28
:104ADE0094004003024BD79010A1E0FAA3E0FB250F
:104AEE00E0FFEA33FE74002FF58274003EF583E09A
:104AFE00FEA3E0D3943CEE648094805003024BD727
:104B0E007C007D05AF03AE021263207D0212638727
:104B1E00EE3395E0FDFC9010A71265879010AB74F4
:104B2E0005F0A37410F090103BE0FCA3E0FD901094
:104B3E0039E0FEA3E0FF1279AF90103CE02410FDA7
:104B4E0090103BE03400FCC004C0059010A2E0259C
:104B5E00E0FF9010A1E033FE74002FF58274003E4A
:104B6E00F583E0FEA3E0FFEE3395E0FDFCE47B7100
:104B7E007A02F9F81263E9E47B80FAF9F8126474A8
:104B8E00E47B18FAF9F8126474E47B867A05F9F876
:104B9E001263E9E47B64FAF9F81264749010A712B8
:104BAE0065879010AB7405F0A37410F0901039E087
:104BBE00FEA3E0FFD005D0041279AF90103AE024A6
:104BCE0028F0901039E03400F09010A2E004F0705C
:104BDE00069010A1E004F0024A9A200103023B0362
:104BEE00C201128A6DA90790103FE9F074FF901070
:104BFE00B6F0A3F0E92430A3F0A37410F0E4A3F010
:104C0E00FBFA7D14FC7F28FE126EFE90103FE064CE
:104C1E00016003024CB2041288D17F301288DBD2BD
:104C2E00EBC2029010A97401F0A3743CF074FFA3C0
:104C3E00F0A3F07BDC7A017D277C007F047E0012DE
:104C4E007D819010F77401F0A374CFF09010A9E459
:104C5E00F0A3744BF0A374FFF0A37405F0A3743AA1
:104C6E00F0E4A3F07B677A017D28FC7F78FE127A50
:104C7E00C09010A9E4F0A37467F0A374FFF0A374BE
:104C8E0011F0A374E2F0E4A3F07BD77A017D50FC1F
:104C9E007F08FE127AC0758CECE4F58AD28C9010E7
:104CAE0015F0A3F090103FE064026003024D4D74C6
:104CBE00021288D17F301288DBD2EBC2029010A98B
:104CCE007401F0A3743CF074FFA3F0A3F07BDC7AC4
:104CDE00017D277C007F047E00127D819010F77489
:104CEE0001F0A374CFF09010A9E4F0A3744BF0A3DD
:104CFE0074FFF0A37409F0A37472F0E4A3F07B6761
:104D0E007A017D28FC7F78FE127AC09010A9E4F01B
:104D1E00A37467F0A374FFF0A37417F0A37452F09A
:104D2E00E4A3F07B7F7A017D50FC7F08FE127AC0EF
:104D3E00758C44758A80D28CE4901015F0A3F09097
:104D4E00103FE0B4032090100074031288D47F301B
:104D5E001288DBD2EBC202758CDA758A80D28CE4B3
:104D6E00901015F0A3F090103FE064F16003024E36
:104D7E00189010A1F0A3F09010A1E0FEA3E0FFC3E5
:104D8E0094C8EE648094804003024E187C007D0A25
:104D9E001263877E007F30126320AA06AB07901045
:104DAE00A1E0FEA3E0FF7C007D0A126387EFC4F84A
:104DBE00540FC868FDEEC454F048FCC004C005E0B2
:104DCE0025E0FF9010A1E033FE74002FF5827400F1
:104DDE003EF583E0FEA3E0FFEE3395E0FDFC901080
:104DEE00A71265879010AB7405F0A37410F0AF0393
:104DFE00AE02D005D0041279AF9010A2E004F0708C
:104E0E00069010A1E004F0024D8590103FE064F290
:104E1E006003023B039010A1F0A3F09010A1E0FEFE
:104E2E00A3E0FFC394C8EE648094804003023B036A
:104E3E007C007D0A1263877E007F30126320AA06F3
:104E4E00AB079010A1E0FEA3E0FF7C007D0A126389
:104E5E0087EFC4F8540FC868FDEEC454F048FCC088
:104E6E0004C005E025E0FF9010A1E033FE74002F92
:104E7E00F58274083EF583E0FEA3E0FFEE3395E085
:104E8E00FDFC9010A71265879010AB7405F0A3740B
:104E9E0010F0AF03AE02D005D0041279AF9010A27D
:0E4EAE00E004F070069010A1E004F0024E291E
:03000B00026BDBAA
:106BDB00C0E0C0F0C083C082C0D075D000C000C080
:0D6BEB0001C002C003C004C005C006C00701
:106BF800D2EA300233C2EB7F841288DB90101DE4A6
:106C0800F0A3EFF07F301288DBEFFD7C0090101EC0
:106C1800E0FEE42DFFEC3EA2E713FEEF132400FF95
:106C2800EE34E090101D80291288D790101DE4F0F2
:106C3800A3EFF07F301288DBEFFD7C0090101EE0A0
:106C4800FEE42DFFEC3EA2E713FEEF13FF90101DAC
:106C5800EEF0A3EFF0D2EB90101DE0FEA3E0FFD31F
:106C680094FFEE6480948F401AE42FFFEE34F0AB6B
:106C780007FA3395E0F9F8E02400FF90101DE0349E
:106C8800F0802690101DE0FEA3E0FFC3E49FFF7490
:106C9800109EAB07FA3395E0F9F890101DE0FEA3BB
:106CA800E0FFC3E49FFF74109EFE3395E0FDFC12E5
:106CB80063E9E47B20FAF9F812884C9010211265F8
:106CC8008790101EE02400F090101DE034F0F09042
:106CD8001000E064016003026DBB901068E0FCA343
:106CE800E0FDA3E0FEA3E0FF901021E0F8A3E0F9A7
:106CF800A3E0FAA3E0FBEF2BFFEE3AFEED39FDEC43
:106D080038FC901068126587C390101AE0941090B0
:106D18001019E064809480506FC390101EE09410A6
:106D280090101DE064809480405E901020E004F094
:106D3800700690101FE004F030044D901068E0FCDD
:106D4800A3E0FDA3E0FEA3E0FF90102C126587905E
:106D58001015E0FFA3E090102ACFF0A3EFF09010F9
:106D68001FE0FFA3E090101BCFF0A3EFF090106896
:106D780012659300000000901015E4F0A3F0901045
:106D88001FF0A3F0D205C204901016E004F07006BC
:106D9800901015E004F0901015E0B41207A3E0B4C9
:106DA800C002D20490101DE0FFA3E0901019CFF0AC
:106DB800A3EFF0901000E0F964026003026E5090B7
:106DC8001015E0FEA3E0FFD39400EE940040549029
:106DD800101DE0FCA3E0FDEF25E0FBEE33FA74ACF8
:106DE8002BF58274313AF58374019325E0FFE4931F
:106DF80033FE74002FF58274003EF583ECF0A3EDAA
:106E0800F074AC2BF58274313AF58374019325E064
:106E1800FFE49333FE74002FF58274083EF583E493
:106E2800F0A3F0901016E004F07006901015E0043E
:106E3800F0901015E0B40410A3E0B4010BC28CD29A
:106E480005901015E4F0A3F0E964036003026EE115
:106E5800901015E0FEA3E0FFD39400EE9400405498
:106E680090101DE0FCA3E0FDEF25E0FBEE33FA7483
:106E7800AC2BF58274313AF58374019325E0FFE475
:106E88009333FE74002FF58274003EF583ECF0A373
:106E9800EDF074AC2BF58274313AF58374019325C7
:106EA800E0FFE49333FE74002FF58274083EF58307
:106EB800E4F0A3F0901016E004F07006901015E0CE
:106EC80004F0901015E0B40410A3E0B4010BC28CD8
:0B6ED800D205901015E4F0A3F0C2EA10
:106EE300D007D006D005D004D003D002D001D00003
:0B6EF300D0D0D082D083D0F0D0E032AD
:030023000287BA97
:0D87BA00C0E0C083C082C0D075D000C007F1
:1087C700309806C298AF998F99309925C299901021
:1087D70025E004F0E0FFC39406500F74012FF582E3
:1087E700E43410F583E0F5998007901025E4F0D282
:0187F700037E
:0B87F800D007D0D0D082D083D0E03278
:03005B00028A8690
:038A8600D20132E8
:1082D7009010F774F8F0A3E4F09010A9F0A37423BA
:1082E700F0A374FFF0A37400F0A37472F0E4A3F09A
:1082F7007B777A01FDFC7F68FE127AC0E49010F765
:10830700F0A3F09010A904F0A3743FF07BDF7A018B
:108317007D247C00E4FFFE1283F59010A97401F020
:10832700A3743DF07BDD7A017D267C007F027E0011
:108337001283F59010F77401F0A374CFF09010A991
:10834700E4F0A3744BF0A374FFF0A3740DF0A374CF
:10835700AAF0E4A3F07B677A017D28FC7F78FE0210
:028367007AC0DA
:0A88D100901000F0C28CC2EB7F8013
:1088DB007E80E4FDD2FF0000FCED25E0FDEF5E6045
:1088EB0004D2FD8002C2FDC2FF000000000000D2D6
:1088FB00FF30FE04ED4401FDEEC313FE0CECB40897
:03890B00D8AF05DD
:01890E002246
:104EBC00FFFFF80007E0001FFFE0F81F07FF0000EE
:104ECC0000000000000000000000000000000000D6
:104EDC000000183C3C3C1818180018180000000082
:104EEC000066666624000000000000000000000060
:104EFC000000006C6CFE6C6C6CFE6C6C00000000B6
:104F0C0018187CC6C2C07C0686C67C181800000027
:104F1C0000000000C2C60C183060C68600000000FD
:104F2C000000386C6C3876DCCCCCCC760000000001
:104F3C000030303060000000000000000000000075
:104F4C0000000C18303030303030180C00000000ED
:104F5C00000030180C0C0C0C0C0C1830000000006D
:104F6C000000000000663CFF3C66000000000000F2
:104F7C00000000000018187E181800000000000047
:104F8C00000000000000000000181818300000009D
:104F9C0000000000000000FE000000000000000007
:104FAC0000000000000000000000181800000000C5
:104FBC000000000002060C183060C08000000000E9
:104FCC0000007CC6C6CED6D6E6C6C67C0000000065
:104FDC0000001838781818181818187E00000000EF
:104FEC0000007CC6060C183060C0C6FE0000000035
:104FFC0000007CC606063C060606C67C00000000C7
:10500C0000000C1C3C6CCCFE0C0C0C1E00000000B8
:10501C000000FEC0C0C0FC0E0606C67C00000000EE
:10502C0000003860C0C0FCC6C6C6C67C00000000CC
:10503C000000FEC606060C183030303000000000B0
:10504C0000007CC6C6C67CC6C6C6C67C0000000076
:10505C0000007CC6C6C67E0606060C780000000062
:10506C0000000000181800000018180000000000D4
:10507C000000000018180000001818300000000094
:10508C00000000060C18306030180C060000000000
:10509C00000000000000FE0000FE00000000000008
:1050AC000000006030180C060C1830600000000086
:1050BC0000007CC6C60C1818180018180000000058
:1050CC000000007CC6C6DEDEDEDCC07C000000001A
:1050DC00000010386CC6C6FEC6C6C6C6000000006E
:1050EC000000FC6666667C66666666FC0000000076
:1050FC0000003C66C2C0C0C0C0C2663C00000000DC
:10510C000000F86C6666666666666CF80000000067
:10511C000000FE6662687868606266FE000000004F
:10512C000000FE6662687868606060F00000000055
:10513C0000003C66C2C0C0DEC6C6663A0000000075
:10514C000000C6C6C6C6FEC6C6C6C6C6000000005F
:10515C0000003C18181818181818183C000000000B
:10516C0000001E0C0C0C0C0CCCCCCC7800000000FD
:10517C000000E6666C6C78786C6666E600000000F1
:10518C000000F06060606060606266FE000000001D
:10519C000000C6EEFEFED6C6C6C6C6C6000000009F
:1051AC000000C6E6F6FEDECEC6C6C6C6000000008F
:1051BC000000386CC6C6C6C6C6C66C3800000000F7
:1051CC000000FC6666667C60606060F000000000B9
:1051DC0000007CC6C6C6C6C6C6D6DE7C0C0E000059
:1051EC000000FC6666667C6C666666E60000000085
:1051FC0000007CC6C660380C06C6C67C00000000E9
:10520C0000007E7E5A1818181818183C0000000070
:10521C000000C6C6C6C6C6C6C6C6C67C0000000010
:10522C000000C6C6C6C6C6C6C66C38100000000054
:10523C000000C6C6C6C6C6D6D6FE6C6C0000000002
:10524C000000C6C66C6C38386C6CC6C6000000001A
:10525C000000666666663C181818183C00000000D2
:10526C000000FEC6860C183060C2C6FE00000000AE
:10527C0000003C30303030303030303C000000002A
:10528C0000000080C0E070381C0E06020000000018
:10529C0000003C0C0C0C0C0C0C0C0C3C000000002A
:1052AC0010386CC600000000000000000000000078
:1052BC0000000000000000000000000000FF0000E3
:1052CC00303018000000000000000000000000005A
:1052DC000000000000780C7CCCCCCC7600000000E8
:1052EC000000E06060786C66666666DC00000000BA
:1052FC0000000000007CC6C0C0C0C67C00000000DE
:10530C0000001C0C0C3C6CCCCCCCCC76000000000F
:10531C0000000000007CC6FEC0C0C67C000000007F
:10532C000000386C6460F060606060F000000000A9
:10533C00000000000076CCCCCCCCCC7C0CCC780023
:10534C000000E060606C7666666666E60000000051
:10535C0000001818003818181818183C0000000025
:10536C0000000606000E06060606060666663C00EB
:10537C000000E06060666C78786C66E60000000007
:10538C0000003818181818181818183C00000000DD
:10539C000000000000ECFED6D6D6D6D600000000E9
:1053AC000000000000DC66666666666600000000B1
:1053BC0000000000007CC6C6C6C6C67C000000000B
:1053CC000000000000DC66666666667C6060F000CB
:1053DC00000000000076CCCCCCCCCC7C0C0C1E009D
:1053EC000000000000DC7662606060F000000000ED
:1053FC0000000000007CC660380CC67C0000000079
:10540C000000103030FC30303030361C0000000012
:10541C000000000000CCCCCCCCCCCC760000000042
:10542C00000000000066666666663C18000000001E
:10543C000000000000C6C6C6D6D6FE6C00000000F8
:10544C000000000000C66C3838386CC60000000044
:10545C000000000000C6C6C6C6C6C67E060CF80014
:10546C000000000000FECC183060C6FE00000000FA
:10547C0000000E18181870181818180E00000000EC
:10548C000000181818180018181818180000000038
:10549C000000701818180E1818181870000000006A
:1054AC00000076DC0000000000000000000000009E
:1054BC000000000010386CC6C6C6FE0000000000DC
:1054CC0000000000000000000000000000000404C8
:1054DC00040404040004000000140A0A0000000084
:1054EC0000000000000014143F140A3F0A0A0000D8
:1054FC0000041E1505060C14150F040000001215EF
:10550C000D0A142C2A1200000000040A0A1E15159C
:10551C00093600000002020100000000000000003B
:10552C0000201008080808080810200000020408D1
:10553C00080808080804020000000004150E0E15E7
:10554C000400000000000404041F04040400000014
:10555C00000000000000000000020201000000003A
:10556C00001F000000000000000000000000000010
:10557C0000020000001008080804040202020100E6
:10558C0000000E1111111111110E00000000040683
:10559C0004040404040E000000000E11110804029F
:1055AC00011F000000000E11100C1010110E000055
:1055BC000000080C0A0A091E0818000000001F0150
:1055CC00010F1010110E000000000E09010F111137
:1055DC00110E000000001F0908040404040400005C
:1055EC0000000E11110E1111110E000000000E1111
:1055FC0011111E10120E000000000000040000002B
:10560C00000400000000000000040000000404007E
:10561C000020100804020408102000000000000004
:10562C001F00001F000000000002040810201008DA
:10563C000402000000000E11110804040004000014
:10564C0000000E111915151D011E000000000404A8
:10565C000C0A0A1E1233000000000F12120E121256
:10566C00120F000000001E1101010101110E0000BB
:10567C0000000F1212121212120F000000001F1263
:10568C000A0E0A02121F000000001F120A0E0A0264
:10569C000207000000001C1201013911120C00005D
:1056AC0000003312121E12121233000000001F04ED
:1056BC0004040404041F000000003E080808080845
:1056CC0008090700000037120A060A0A1237000000
:1056DC000000070202020202223F000000001B1B16
:1056EC001B1B15151515000000003B1216161A1A77
:1056FC001217000000000E1111111111110E0000F3
:10570C0000000F12120E02020207000000000E1120
:10571C0011111117190E180000000F12120E0A1297
:10572C001237000000001E1101060810110F0000B6
:10573C0000001F1504040404040E000000003312C2
:10574C0012121212120C000000003312120A0A0C70
:10575C000404000000001515150E0A0A0A0A0000C0
:10576C0000001B0A0A04040A0A1B000000001B0AA2
:10577C000A040404040E000000001F0908040402BB
:10578C00121F0000001C04040404040404041C0084
:10579C00000202020404080808100000000E0808A9
:1057AC000808080808080E0000040A0000000000A1
:1057BC000000000000000000000000000000003F9E
:1057CC0000040000000000000000000000000000C9
:1057DC00000C121C123C000000000302020E1212FC
:1057EC00120E000000000000001C1202021C00003F
:1057FC0000001810101C1212123C000000000000D7
:10580C00000C121E021C000000003804041E0404CC
:10581C00041E000000000000003C120C021E221CA2
:10582C0000000302020E12121237000000000400E6
:10583C0000060404040E000000000800000C080818
:10584C000808080700000302023A0A0E123700008B
:10585C000000070404040404041F000000000000FE
:10586C00000F15151515000000000000000F121296
:10587C001237000000000000000C1212120C000085
:10588C0000000000000F1212120E020700000000B0
:10589C00001C1212121C103800000000001B060223
:1058AC000207000000000000001E020C101E000089
:1058BC0000000004040E04040418000000000000A2
:1058CC00001B1212123C0000000000000037120AEC
:1058DC000C040000000000000015150E0A0A000060
:1058EC0000000000001B0A040A1B0000000000005E
:1058FC000037120A0C04040300000000001E080408
:10590C00041E0000001808080804080808081800FD
:10591C00080808080808080808080808000604040D
:10592C00040804040404060002251800000000000A
:10593C00000000000000000000000000000000005B
:10594C000000000000000008080808080808000013
:10595C001818000000486C24120000000000000021
:10596C00000000000000002424247F1212127F1279
:10597C00121200000000081C2A2A0A0C1828282AD7
:10598C002A1C080800000022251515152A58545405
:10599C00542200000000000C1212120A7625291164
:1059AC00916E0000000606040300000000000000D9
:1059BC00000000000040201010080808080808101B
:1059CC0010204000000204080810101010101008DD
:1059DC00080402000000000008086B1C1C6B08087F
:1059EC000000000000000000080808087F080808F4
:1059FC000800000000000000000000000000000093
:105A0C00060604030000000000000000FE00000079
:105A1C00000000000000000000000000000000007A
:105A2C0006060000000080404020201010080804EA
:105A3C000402020000000018244242424242424248
:105A4C0024180000000000080E08080808080808C0
:105A5C00083E00000000003C424242202010080496
:105A6C00427E00000000003C424220182040404290
:105A7C00221C0000000000203028242422227E203A
:105A8C00207800000000007E0202021A26404042EC
:105A9C00221C0000000000382402021A2642424256
:105AAC00241800000000007E2222101008080808AC
:105ABC00080800000000003C4242422418244242E4
:105ACC00423C00000000001824424242645840400E
:105ADC00241C00000000000000001818000000004A
:105AEC001818000000000000000000080000000072
:105AFC0000080804000000402010080402040810EC
:105B0C00204000000000000000007F0000007F002B
:105B1C0000000000000000020408102040201008C3
:105B2C00040200000000003C4242464020101000DD
:105B3C00181800000000001C225A555555552D42CE
:105B4C00221C00000000000808181414243C2242F7
:105B5C0042E700000000001F2222221E2242424285
:105B6C00221F00000000007C4242010101010142A1
:105B7C00221C00000000001F2242424242424242CC
:105B8C00221F00000000003F4212121E121202429D
:105B9C00423F00000000003F4212121E121202028D
:105BAC00020700000000003C2222010101712122A9
:105BBC00221C0000000000E7424242427E42424268
:105BCC0042E700000000003E080808080808080822
:105BDC00083E00000000007C101010101010101077
:105BEC001010110F0000007722120A0E0A12122256
:105BFC0022770000000000070202020202020202E9
:105C0C00427F000000000077363636362A2A2A2AD0
:105C1C002A6B0000000000E346464A4A5252526288
:105C2C00624700000000001C2241414141414141BA
:105C3C00221C00000000003F424242423E0202028F
:105C4C00020700000000001C2241414141414D531C
:105C5C00321C60000000003F4242423E12122222DF
:105C6C0042C700000000007C42420204182040425F
:105C7C00423E00000000007F490808080808080898
:105C8C00081C0000000000E74242424242424242ED
:105C9C00423C0000000000E7424222242414141865
:105CAC00080800000000006B494949495555362247
:105CBC0022220000000000E7422424181818242493
:105CCC0042E700000000007722221414080808089C
:105CDC00081C00000000007E212010100804044263
:105CEC00423F00000078080808080808080808085F
:105CFC0008087800000002020404080808101020AC
:105D0C0020204040001E1010101010101010101009
:105D1C0010101E00003844000000000000000000BD
:105D2C000000000000000000000000000000000067
:105D3C00000000FF0006080000000000000000004A
:105D4C0000000000000000000000003C42784442CB
:105D5C0042FC0000000000030202021A26424242EA
:105D6C00261A000000000000000000384402020265
:105D7C0044380000000000604040407844424242F9
:105D8C0064D80000000000000000003C427E0202CB
:105D9C00423C0000000000F08808087E0808080853
:105DAC00083E0000000000000000007C22221C02C3
:105DBC003C42423C000000030202023A464242428C
:105DCC0042E700000000000C0C00000E0808080858
:105DDC00083E000000000030300000382020202059
:105DEC002020221E0000000302020272120A161268
:105DFC00227700000000000E0808080808080808B0
:105E0C00083E0000000000000000007F9292929279
:105E1C0092B70000000000000000003B46424242E6
:105E2C0042E70000000000000000003C42424242F9
:105E3C00423C0000000000000000001B26424242D1
:105E4C00221E02070000000000000078444242427B
:105E5C00447840E000000000000000774C0404048B
:105E6C00041F0000000000000000007C42023C40C7
:105E7C00423E0000000000000008083E0808080828
:105E8C000830000000000000000000634242424263
:105E9C0062DC000000000000000000E74224241433
:105EAC000808000000000000000000EB49495555AF
:105EBC0022220000000000000000007624181818B0
:105ECC00246E000000000000000000E742242414AF
:105EDC0018080807000000000000007E22100808C7
:105EEC00447E000000C020202020201020202020F4
:105EFC002020C000101010101010101010101010D6
:105F0C0010101010000608080808081008080808E7
:105F1C00080806000C32C20000000000000000005F
:045F2C000000000071
:0A8A2E004210F700004210F5FFFFB0
:1089B700E4FDFCC3ED9FEE6480F8EC6480985015ED
:1089C700E4FBFA0BBB00010ABA03F8BBE8F50DBDDF
:0589D70000010C80DE30
:0189DC002278
:0B89DD0012899C901104E0FEA3E0FF53
:1089E800AD07AC06C2AFC2FBC2C1ECFF8F80AF05BA
:0B89F8008FA0C2C2D2C2D2C1D2AF22F7
:1089880012899CE4FF12899CE4FF12899CE4FF127F
:04899800899CE4FFD3
:10899C00AD07AC06C2AFD2FBC2C1ECFF8F80AF05F6
:0B89AC008FA0C2C2D2C2D2C1D2AF2243
:0B8A6200901100E0FEA3E0FF0289E895
:108769009010C0EEF0A3EFF0A3ECF0A3EDF09011A0
:10877900021289E39010C0E0FF7E0012899CA3E0F9
:10878900FF12899CEAFF12899CAF037E001289DDE2
:108799009010C2E0FF7E0012899CA3E0FF12899C21
:1087A9009010C6E0FF12899CA3E0FF12899C028AFF
:0187B900625D
:1086AC009010C2EEF0A3EFF0AB05AA0490110212E9
:1086BC0089E39010C2E0FF7E0012899CA3E0FF12B8
:1086CC00899CE024019010C2E03400FF7E001289E6
:1086DC009CA3E02401FF9010C2E03400FE1289DD5F
:1086EC00EAFF7E0012899CAF0312899CEB2401E403
:1086FC003AFF7E0012899CEB2401FFE43AFE1289BA
:04870C009C028A62DF
:10894D00901102E4F0A3742AF0A3E4F0A3742BF0C9
:10895D00901100E4F0A3742CF09010FF7401F090CE
:10896D0010F9F0A374E0F0A37401F0A37440F07F4C
:0B897D00367E001289E87F2802899CEA
:10710700D2FC7F327E001289B7C2FC1289B7D2FC4B
:107117001289B77F111289E87F641289B77F13122A
:1071270089E87F641289B77F361289E87F0212895E
:107137009C7F3A1289E87F0512899C7FF01289E8C3
:107147007F5A12899C7F5A12899C7FF11289E87FA6
:107157005A12899C7F5A12899C7FF71289E81289F3
:10716700957F1012899C7F021289977FF81289E810
:107177007F111289977FF91289E87F1712899C7FFF
:10718700441289E8E4FF12899C7F0112899C7FF2EF
:107197001289E87F3B12899C7F3012899C7F0312FA
:1071A700899C7F0812899C7F0812899C7F08128915
:1071B7009C7F081289977F0812899C7F081289880B
:1071C7007F3012899C7F0812899C7F0812899C7FD7
:1071D7000812899C7F0812899C7FF41289E87F0630
:1071E70012898812898B7F5212899C7F0212899794
:1071F7007F5212899C7F0212899C7FF51289E8E4ED
:10720700FF12899C7F3112899C7F541289927F04D7
:107217001289927F3112899C7F5412899C7FF612C2
:1072270089E81289957F0812899C7F0312899C7FC0
:10723700011289977F011289977FFA1289E87F04E3
:1072470012899C7F371289977F2012899C7F211290
:10725700899C7F1F12899C7F2A12899C7F1912891A
:107267009C7F2812899C7F2112899C7F2E12899CE2
:107277007F2B12899C7F1912898D7FFB1289E87FEA
:107287005712899C7F2212899C7F0E12899C7F2F1F
:1072970012899C7F3012899C7F1F12899C7F16124E
:1072A700899C7F1412899C7F3012899C7F2A1289BE
:1072B7009C7F1812899C7F1D12899C7F1912898DCA
:1072C7007F781289B77F291289E8901100E4F0A32B
:1072D700742CF09010FF7401F09010F9F0A374E093
:1072E700F0A37401F0A37440F0901102E4F0A374CA
:1072F7002AF0A3E4F0A3742BF07F361289E87FE825
:0373070002899C5C
:08822D009010A3EEF0A3EFF0A6
:108235009010A9126593000000009010F9E0FEA3CC
:10824500E0FFA3E0FCA3E0FD1265C49010A9126550
:10825500879010FAE024FFFB9010F9E034FFFA90C4
:1082650010FCE024FFFE9010FBE034FF9010C6F0F8
:10827500A3CEF0E4FDFCFFFE1287699010A5126500
:1082850093000000009010A9E0FCA3E0FDA3E0FE30
:10829500A3E0FF9010A5E0F8A3E0F9A3E0FAA3E0BE
:1082A500FBC312652A502A9010A3E0FEA3E0FF123B
:1082B500899CA3E0FCA3E0FDA3E0FEA3E02401FF6D
:1082C500E43EFEE43DFDE43CFC9010A5126587808C
:0182D500B4F4
:0182D6002285
:1000260090114DFEE0FCA3E0FD90114CE02DFD90FB
:0D003600114BE03C901151FCE0FAA3E0FBFF
:100043009010C0EAF0A3EBF01286AC9010C0E0FE73
:06005300A3E0FF02899CFE
:10847B009010A3E0FAA3E0FB9010A7E0F8A3E0C3F1
:0B848B009BFBE89ACB2401CB3400FAE5
:108496009010AFEAF0A3EBF09010ABEEF0A3EFF084
:1084A600A3ECF0A3EDF0C006C007A3E0FEA3E0FF37
:1084B6009010ABE0FAA3E02FFFEA3ECF24FFFBEFDC
:1084C60034FFFAA3E0FFA3E09010C6CFF0A3EFF0CD
:1084D600D007D0061287699010AF74FFF5F01263CB
:1084E600D345F0600D9010F7E0FEA3E0FF12899CE3
:0384F60080E522FC
:108574009010ABEEF0A3EFF09010AFEAF0A3EBF0A5
:108584009010ADECF0A3EDF09010ABE0FAA3E0FB9B
:10859400FFAE02C006C0079010AFE0FEA3E0FF905C
:1085A40010ADE0F8A3E02FFFE83ECF24FFCF34FF67
:1085B4009010C6F0A3EFF0D007D006128769901090
:1085C400AF74FFF5F01263D345F0600D9010F7E03F
:0A85D400FEA3E0FF12899C80E5225F
:0E74FC009010C8EEF0A3EFF0A3ECF0A3EDF0BB
:10750A00E49010D2F0A3F0A3F0A3F09010C8E0FE2C
:10751A00A3E0FFC3EB9FFFEA9E9010D6F0A3EFF023
:10752A009010CAE0FAA3E0FBC39010CFE09BFE9054
:10753A0010CEE09A9010D8F0A3CEF09010C8E0FFD9
:10754A00A3E09010E0CFF0A3EFF0A3EAF0A3EBF0F2
:10755A009010D6E0FEA3E0FFD39400EE64809480FE
:10756A00400A9010DCE4F0A304F08021EF4E70088A
:10757A009010DCF0A3F0801574FF9010DCF0A3F0FB
:10758A00C3E49FFFE49E9010D6F0A3EFF09010D8CA
:10759A00E0FEA3E0FFD39400EE64809480400A905A
:1075AA0010DEE4F0A304F08021EF4E70089010DEA4
:1075BA00F0A3F0801574FF9010DEF0A3F0C3E49FEF
:1075CA00FFE49E9010D8F0A3EFF09010D8E0FEA34D
:1075DA00E0FF9010D6E0FCA3E0FDD39FEE6480F8B4
:1075EA00EC6480989010DA4007ECF0A3EDF0800587
:1075FA00EEF0A3EFF0E49010D0F0A3F09010DBE0EF
:10760A002401FF9010DAE03400FED39010D1E09FFD
:10761A009010D0E09E40030276E99010E0E0FEA3CD
:10762A00E0FFA3E0FCA3E0FD9010F712003E9010EB
:10763A00D6E0FEA3E0FF9010D3E02FF09010D2E046
:10764A003EF09010D8E0FEA3E0FF9010D5E02FF0B6
:10765A009010D4E03EF09010DAE0FEA3E0FF901024
:10766A00D2E0FCA3E0FDD39FEE6480F8EC6480983E
:10767A004020ED9FFFEC9E9010D2F0A3EFF0901007
:10768A00DCE0FEA3E0FF9010E1E02FF09010E0E0D4
:10769A003EF09010DAE0FEA3E0FF9010D4E0FCA3E5
:1076AA00E0FDD39FEE6480F8EC6480984020ED9F63
:1076BA00FFEC9E9010D4F0A3EFF09010DEE0FEA352
:1076CA00E0FF9010E3E02FF09010E2E03EF090101F
:0F76DA00D1E004F070069010D0E004F0027606C4
:0176E900227E
:1083F5009010A7EAF0A3EBF09010A3EEF0A3EFF036
:10840500A3ECF0A3EDF012847B9010A3E0FEA3E0B3
:10841500FF9010A9E0FCA3E0FD12847B9010A3E07F
:10842500FEA3E0FFA3E0FCA3E0FD9010A5E0FAA306
:10843500E0FB9010A9E0F8A3E0C39BFBE89ACB24EE
:1084450001CB3400FA1285749010A7E0FEA3E0FF7B
:108455009010A5E0FCA3E0FD9010A5E0FAA3E0FBD9
:108465009010A9E0F8A3E0C39BFBE89ACB2401CBCD
:068475003400FA028574D8
:0E7D81009010A3EEF0A3EFF0A3ECF0A3EDF052
:107D8F009010A3E0FEA3E0FFC3EB9FFFEA9ECF247A
:107D9F0001CF34009010AFF0A3EFF09010A5E0FEEC
:107DAF00A3E0FFC39010AAE09FFF9010A9E09ECF21
:107DBF002401CF34009010B1F0A3EFF09010A5E0A4
:107DCF00FCA3E0FD9010A9E0FFA3E09010C6CFF058
:107DDF00A3EFF09010A3E0FEA3E0FF128769E490F9
:107DEF0010ADF0A3F09010B1E0FEA3E0FFC3901030
:107DFF00AEE09F9010ADE09E5032E4FBFAD39010AE
:107E0F00B0E09B9010AFE09A40129010ABE0FEA351
:107E1F00E0FF12899C0BBB00010A80E19010AEE0DD
:107E2F0004F070C19010ADE004F080B99010FAE04A
:107E3F0024FFFB9010F9E034FFFA9010FCE024FFD0
:107E4F00FE9010FBE034FF9010C6F0A3CEF0E4FDDF
:067E5F00FCFFFE02876932
:1078720090114FF0A3EFF09010E8E0FFA3E0901119
:0E78820051CFF0A3EFF09010E4E0FEA3E0FF82
:1078900090114BECF0A3EDF0901149EEF0A3EFF056
:1078A00090114DEAF0A3EBF02FFFEE3AA31200295E
:1078B00090114DE0FEA3E0FFC390114AE09FFF90BE
:1078C0001149E09EFE90114F12002A90114DE0FEEA
:1078D000A3E0FF90114AE02FFF901149E03EFE9097
:1078E000114FE0FCA3E0FDC390114CE09DFD901111
:1078F0004BE09C12003A90114DE0FEA3E0FFC390D4
:10790000114AE09FFF901149E09EFE90114FE0FC6C
:10791000A3E0FDC390114CE09DFD90114BE09C1243
:10792000003A90114FE0FEA3E0FF90114AE02FFFD4
:10793000901149E03E12002690114FE0FEA3E0FFB7
:10794000C390114AE09FFF901149E09E12002690DB
:10795000114FE0FEA3E0FF90114AE02FFF90114984
:10796000E03EFE90114DE0FCA3E0FDC390114CE021
:107970009DFD90114BE09C12003A90114FE0FEA348
:10798000E0FFC390114AE09FFF901149E09EFE90F6
:10799000114DE0FCA3E0FDC390114CE09DFD901162
:0F79A0004BE09CFC901151E0FAA3E0FB02004386
:10730A009010E4EEF0A3EFF0A3ECF0A3EDF0A3EA03
:04731A00F0A3EBF001
:10731E00E49010EDF0A3F09010EAE0FEA3E0FF90F1
:10732E0010EFEEF0A3EFF025E0FFEE33FEC3740393
:10733E009F9010F4F0E49E9010F3F09010ECE0703B
:10734E00030274499010EFE0FEA3E0FF9010EDE011
:10735E00FCA3E0FDD39FEE6480F8EC6480984003BC
:10736E000274FB9010F1ECF0A3EDF09010EFE0FE44
:10737E00A3E0FFD39010F2E09FEE6480F89010F13E
:10738E00E0648098502B9010E6E0FCA3E0FD901096
:10739E00EDE0FAA3E0FB9010F1E0FFA3E0CF12784E
:1073AE00729010F2E004F070C29010F1E004F080E0
:1073BE00BA9010F3E0FCA3E0FDC3EC64809480501F
:1073CE00239010EDE0FEA3E07802C333CE33CED887
:1073DE00F92DFFEC3ECF2406CF34009010F3F0A32E
:1073EE00EFF080439010EFE0FEA3E0FFC39010EEAD
:1073FE00E09FFF9010EDE09EFEEF7802C333CE3398
:10740E00CED8F9FF9010F4E02FFF9010F3E03ECFAE
:10741E00240ACF3400F0A3EFF09010F0E024FFF038
:10742E009010EFE034FFF09010EEE004F0600302F5
:10743E0073529010EDE004F00273529010EFE0FEE4
:10744E00A3E0FF9010EDE0FAA3E0FBD39FEE648083
:10745E00F8EA64809840030274FB9010E6E0FCA307
:10746E00E0FDEE1278729010F3E0FCA3E0FDC3ECA9
:10747E006480948050239010EDE0FEA3E07802C368
:10748E0033CE33CED8F92DFFEC3ECF2406CF3400C9
:10749E009010F3F0A3EFF080439010EFE0FEA3E026
:1074AE00FFC39010EEE09FFF9010EDE09EFEEF7890
:1074BE0002C333CE33CED8F9FF9010F4E02FFF90F5
:1074CE0010F3E03ECF240ACF3400F0A3EFF090107B
:1074DE00F0E024FFF09010EFE034FFF09010EEE0BB
:0D74EE0004F070069010EDE004F002744907
:0174FB00226E
:107BAD00901106EEF0A3EFF0A3ECF0A3EDF0A3EA35
:047BBD00F0A3EBF056
:107BC100C007A3E0FFA3E09010C6CFF0A3EFF0D071
:107BD10007128769E4901111F0A3F0901108E0FEFB
:107BE100A3E0FFC390110DE09FFF90110CE09ECF29
:107BF1002401FDE43FFC901106E0FEA3E0FFC390E9
:107C0100110BE09FFF90110AE09ECF2401CF3400B9
:107C1100FE126320C3901112E09F901111E09E505B
:107C21004DA3E025E0FF901111E033FE90110EE02D
:107C3100FBA3E0FAA3E0F98F828E831262F3901125
:107C410013F0E92FF9EA3EFA9000011262F3FBFE0C
:107C5100901113E0FDEDFF12899C901112E004F0E8
:107C61006003027BDC901111E004F0027BDC9010D8
:107C7100FAE024FFFB9010F9E034FFFA9010FCE0E9
:107C810024FFFE9010FBE034FF9010C6F0A3CEF06D
:087C9100E4FDFCFFFE0287691F
:107AC0009010A3EEF0A3EFF0A3ECF0A3EDF0A3EA87
:047AD000F0A3EBF044
:107AD400C007A3E0FFA3E09010C6CFF0A3EFF0D05F
:107AE400071287699010A5E0FEA3E0FFC39010AAD7
:107AF400E09FFF9010A9E09ECF2401FDE43FFC909D
:107B040010A3E0FEA3E0FFC39010A8E09FFF901035
:107B1400A7E09ECF2401CF3400FE1263209010AF63
:107B2400EEF0A3EFF0E4A3F0A3F09010AFE0FEA317
:107B3400E07803CEC313CE13D8F9FFC39010B2E09C
:107B44009F9010B1E09E50609010ABE0FBA3E0FA70
:107B5400A3E0F91262DAF99010ACE475F001126353
:107B6400BD7B80E4FAE95B60109010AEE0600590A4
:107B740010F580139010F7800E9010AEE060059021
:107B840010F780039010F5E0FEA3E0FF12899CEB50
:107B9400C313FB0AEAB408CD9010B2E004F0708A73
:087BA4009010B1E004F08082B2
:017BAC0022B6
